:020000040800F2
:10000000580C0020D5000008691800081D170008CA
:1000100000000000000000000000000000000000E0
:100020000000000000000000000000003B1C000871
:100030000000000000000000391C00083D1C000802
:10004000E7000008E7000008E7000008E7000008F4
:10005000E7000008E7000008E7000008E7000008E4
:10006000E7000008E7000008E7000008E7000008D4
:10007000E7000008E7000008E7000008E7000008C4
:10008000E7000008E7000008E7000008E7000008B4
:10009000E7000008E7000008E7000008E7000008A4
:1000A000E7000008E7000008E7000008E700000894
:1000B000E7000008E7000008E7000008D12A000870
:1000C0000348854600F02AF800480047472B0008FF
:1000D000580C00200448804704480047FEE7FEE72C
:1000E000FEE7FEE7FEE7FEE7BD1C0008C1000008D2
:1000F00030B50B46014600202022012409E00D46C0
:10010000D5409D4205D31D469540491B2546954047
:1001100040191546521E002DF1DC30BD064C01255C
:10012000064E05E0E36807CC2B430C3C984710349F
:10013000B442F7D3FFF7C8FF7C2B00089C2B0008C4
:1001400000B5002200F002F800BD000030B50E4BF3
:1001500005465C7A0120012C15D8587A00241C54DD
:10016000587A8000C01845605D7A184608302A54D5
:10017000587A421C5A72303008703A2048702F204A
:100180008870CC70002030BD4C080020F8B50023EA
:1001900093E0224601249C40A44622407ED04C6835
:1001A000022C01D0122C0CD1DC08A40027183C6AC8
:1001B0005D07ED0E0F26AE40B4430E69AE402643F8
:1001C0003E6205685E000324B4400F79A543BF0773
:1001D000BF0FB7402F4307604D68012D05D0022D9A
:1001E00003D0112D01D0122D0ED18568CF68A54303
:1001F000B7402F43876047686546AF430D79ED06EA
:10020000ED0F9D403D434560C568A5438C68B440F3
:100210002C43C4604C68E4004ED52B4CA5690126E4
:100220003543A561A4699D0834400094274CAD0076
:100230002F19BC689D072E0F0F25B540AC4309252B
:10024000ED06A84201D1002514E0214DA84201D1BC
:1002500001250FE01F4DA84201D102250AE01E4DE5
:10026000A84201D1032505E01C4DA84201D1042577
:1002700000E00525B5402543BD60194C25684E6852
:100280009543F60300D51543256065684E68954390
:10029000B60300D515436560A56800E00CE04E6824
:1002A0009543F60200D51543A560E5684E68954371
:1002B000B60200D51543E5605B1C0A681446DA40B7
:1002C00000D066E7F8BD00000010024000000140C9
:1002D0000004004800080048000C004800100048D6
:1002E00000040140002A01D081617047816270479B
:1002F000014800687047000054000020024801686F
:10030000491C0160704700005400002010B50648E9
:100310000168102211430160002000F007F800F08E
:1003200017F8002010BD00000020024010B5044660
:1003300000F0AAFE7D21C900FFF7DAFE01F078F98E
:1003400000222146501E00F02FF8002010BD0000B2
:1003500008B50F488169012211438161816911400B
:100360000091C26901040A43C261C06900220840C9
:1003700000901146501F00F017F800221146901E01
:1003800000F012F800221146501E00F00DF808BDD2
:1003900000100240C106C90E0120884001490860D2
:1003A0007047000000E100E010B501F05FFA10BDF9
:1003B00010B50C0606D54906490E1C2461430818E1
:1003C000283004E01C2461430818FF30093099B23A
:1003D000002A06D001228272C180190C01810020FE
:1003E00010BD002282728180F9E71C224A43121854
:1003F00010B5FF30FF300230926BC06902F01DF87B
:1004000010BD1C224A43121810B5FF30FF32FF30D6
:10041000013202309269C06902F06AF810BD000032
:10042000F0B54A06520E13461C256A43CC09121831
:10043000002C01D0283201E0FF320932044613704B
:10044000C909FF345170E134217A01293DD00121DD
:100450002172957A494B002D4949557837D0002DA6
:1004600005681678AC465BD0B600AD5B6F0404D56A
:10047000444F0D403D436746BD5305681678AC4672
:10048000B600AD5B6F0605D53C4F0D4040373D4390
:100490006746BD5315780668AF00F55B0D403949D6
:1004A0000D43F553364F117830373D4006688900CB
:1004B0001D4375521178334A00688900F13A15409E
:1004C0001D43455200202072F0BD0220F0BD002DDA
:1004D00005681678AC4610D0B600AD5B6F0605D542
:1004E0000D40264940310D4361468D530568107813
:1004F000234A8100685A30320EE0B600AD5B6F04CB
:1005000004D50D401F490D4361468D530568107891
:100510001C4A8100685AF13A104018436852D1E7EA
:10052000B600AD5B6F0404D5164F0D403D436746E2
:10053000BD5305681678AC46B600AD5B6F0605D5B1
:100540000E4F0D4040373D436746BD531578076851
:10055000AE00BD5B0D40094940310D43BD53094F0D
:100560001678F13F3D400168B6001D438D53117868
:10057000034A890000683032A1E700008080000053
:100580008F8F000080C00000F0B54B06CA095B0EDB
:10059000002A04D01C225A431218283204E01C22DC
:1005A0004A431218FF320932002494701370034634
:1005B000C909FF335170E133197A01291AD0012199
:1005C000197251781A4C00291178066814D08D00E0
:1005D000715B4F0603D52140164C214371531178AE
:1005E00000688A00124C815A303421401024614046
:1005F000202414E00220F0BD8D00715B4F0403D570
:1006000021400D4C21437153117800688A000A4C37
:10061000815AF13C2140012424036140640061407F
:10062000044C403C2143815200201872F0BD000070
:100630008F8F0000C080000080C00000F0B54D0624
:100640006D0E2E461C246543CF092C18002F01D0B7
:10065000283401E0FF3409342670C909617001466D
:10066000FF31E260E131E3708C46097A01290DD057
:10067000012261460A72E2789349002A08D0012AD1
:1006800020D0022A0DD0032A25D111E00220F0BD8E
:10069000237802689B00D55A0D40FF35FF3502359F
:1006A00004E0237802689B00D55A0D40D55212E031
:1006B0002278036892009D5A0D400321490269186F
:1006C000995208E0237802689B00D55A0D40012119
:1006D00089026918D15226780768B5007B5B7B498F
:1006E0007B4A0B40134333437B53A57A002D53D0F1
:1006F0002578784E0B400768AD0033437B53E38881
:1007000050265D0803686D00F65AF6182378DF005E
:1007100001239B02FB18F552238950265D080368CC
:100720006D00F65AF6182378DF005311FB18F552C6
:1007300063780768002B237875D09D007B5B5E048F
:1007400003D5654E0B4033437B53237807689D00E8
:100750007B5B5E0604D55E4E0B40403633437B53D5
:10076000237805689E00AB5B0B405B490B43AB53A2
:10077000564E2178303633400568890013436B525A
:100780002178554C00688900F13C234013434352C3
:10079000002061460872F0BD6378002BA3881FD04B
:1007A0005D0803685026F65A6D00F6182378DF00BE
:1007B00001239B02FB18F552237807689D007B5BA1
:1007C0005E0604D50B40424940310B437B53016820
:1007D00020783E4C8300C85A30342040202440E02A
:1007E0005D0803685026F65A6D00F6182378DF007E
:1007F0003A4BFB18F55203685025ED5A374EEB186B
:100800002578B61CED00AD195E19E3683E2B0BD9B7
:10081000DD022D0CDB0601D16D1EADB2AB02012550
:10082000ED032B4307E020E0DD032D0CDB0701D0B7
:100830006D1CADB2AB023380237807689D007B5BF3
:100840005E0403D50B4024490B437B530168207899
:10085000214C8300C85AF13C20400124240360400D
:10086000640060401043C85292E79D007B5B5E04C9
:1008700003D5194E0B4033437B53237807689D0003
:100880007B5B5E0604D5124E0B40403633437B53F0
:10089000237805689E00AB5B0B400D4940310B434C
:1008A000AB530D4E2178F13E3340012636037340A1
:1008B000760073400568890013436B522178034C1E
:1008C00089000068303460E78F8900008F8F000056
:1008D000808000008081000080C0000004040000CF
:1008E000F0B54D066D0E1C246C432418FF340934FA
:1008F000636122610022A26162702570E5681E4674
:10090000AB4201D92B46F21A6261A67A490601224E
:10091000890DD203002E2F4D06680CD05027BF5BE7
:10092000BE192F1FC91976183E2B15D9D902090CEB
:10093000DF060CD00DE05027BF5B4919BE197518B2
:1009400020E08902114300E08902298032E0491E3B
:1009500089B28902114306E0D903090CDF0701D0EF
:10096000491C89B2890231806178002902D00129AD
:1009700018D01FE001685026765A71182678F600C4
:1009800075194D193E2B06D9D902090CDB06D8D1B1
:10099000491E89B2D5E7D903090CDA07D4D0491C1E
:1009A00089B2D1E701685022525A51182278D200F8
:1009B00052198B5201682078074B8200885A1840E0
:1009C00001231B0358405B005840044B18438852D6
:1009D0000020F0BD060400008FBF000080800000F2
:1009E000F0B50246FF32E132137A012B0BD001241D
:1009F0004F06CB097F0E1472002B06D01C237B43BD
:100A00001B18283306E00220F0BD1C234B431B18A3
:100A1000FF3309339C701F70CE095E7001242403DC
:100A20001025114B002F0BD04906C90D002E10D0F8
:100A300004680E4E605A304068401843605210E01F
:100A400001680B4E088830406040684018430880B9
:100A500007E00568064E685A303E30406040184353
:100A6000685200201072F0BD80800000BF8F00002F
:100A7000BFBF0000F0B506461D464806400E1C23C9
:100A800043439C19E563A2630022226401232834B6
:100A900063702070E0682B46854203D90546181A1A
:100AA000606100E06261A07A2A4F002810D02278AD
:100AB00030689200825C49065206890D002A16DAD7
:100AC0005022125A10183A1D89184552228914E0F2
:100AD000ABB2A2882169306801F09BF830685021E0
:100AE000095A08182178C900C919455220E0502236
:100AF000125A1018C9194552E288ABB22169306800
:100B000001F087F861781448002902D0012907D044
:100B10000EE0217832688B00D15A01400F4805E081
:100B2000217832688B00D15A01400D480143D152DF
:100B3000207831688200084B885A303318401023DF
:100B4000584020235840054B403B18438852002012
:100B5000F0BD0000020400008F8F0000C080000084
:100B600080C0000070B50446006840308088C00B2B
:100B700002D0204600F09CFE206840308188490564
:100B80000AD58188334A11408180204600F0DAF886
:100B90000021204600F000F9206840308188490497
:100BA00003D581882C4A114081802068403081889B
:100BB000890403D58188294A11408180206840300A
:100BC00081880425C904002910DA0188A94301801D
:100BD000BD202168000240310880204600F0BEF8A8
:100BE0002068403081881E4A114081802068403052
:100BF0008188090517D581881A4A114081802068AB
:100C0000403001880822114301802068403001886B
:100C100029430180206840308088C043C00402D549
:100C2000204600F0E3F8206840308188890506D529
:100C300081880D4A11408180204600F0A5F8206887
:100C400040308188C90503D58188084A11408180D8
:100C500070BD0000FFFB0000FFBF0000FFDF0000D1
:100C6000FFEF0000FFF70000FFFD0000FFFE0000A7
:100C7000F8B500270446002807D02646FF36E1369F
:100C8000707A0025002802D005E00120F8BD3572F9
:100C9000204600F03BF80320707201210BE01C207D
:100CA000784302191046203041720772C5725563AD
:100CB00095637F1CD5636068B842F0D800200BE0D4
:100CC0001C2242431219FF32013255721072D57242
:100CD00055619561401CD56162688242F0D82068F8
:100CE0004030018020684030058020684030858099
:100CF000206840300582BF20226800024032108008
:100D00002034257171720020F8BD000008B500681C
:100D10000A49884210D10A48C2690121C9050A431B
:100D2000C261C06900220840009011461F20FFF7F1
:100D30003BFB1F20FFF72EFB08BD0000005C0040BE
:100D40000010024010B5C41DFF34FA340121E069DF
:100D500001F0BFFCE06901F084FC10BD10B5044651
:100D60008069002806D00748016906229143016185
:100D700000F06AFFFF34FF340234E06901F094FCB4
:100D800010BD000000ED00E0FF3010B5FF30023074
:100D9000C06901F08FFC10BD0246FF32E132137AC8
:100DA000012B08D001231372002906D020300171D5
:100DB0000020107270470220704700688021403088
:100DC0008181F5E710B5872189000A580146FF3176
:100DD000ED31104601F093FC10BD00684030018BEE
:100DE0000122D203114301830020704710B504464D
:100DF000FF30FF300230C06901F0D6FCA069002846
:100E000004D00348016906221143016110BD0000AE
:100E100000ED00E0F8B504460068434DC00352D52C
:100E2000E8690026C00007D4E96928040143E961A4
:100E3000E9690140012600913C480168C90510D4C8
:100E40000168821511430160FFF752FA074604E07A
:100E5000FFF74EFAC01B642824D834480068C00548
:100E6000F6D5286A03273F02384020D06168394010
:100E700081421CD0286A2A6AB843012109040A4326
:100E80002A622A6A8A432A622862C0070FD0FFF7C3
:100E90002FFA009008E0FFF72BFA0099411A244836
:100EA000814201D90320F8BD286A8007F3D5286A5A
:100EB0006168B84308432862002E04D0E869012124
:100EC00009078843E8612078C00705D0286BA1682E
:100ED00080088000084328632078800706D5286BA7
:100EE000032109048843E1680843286320788006C9
:100EF00005D5286B102188432169084328632068A1
:100F0000800305D5286B80218843A16908432863A5
:100F10002088400505D5286B402188436169084336
:100F200028630020F8BD000000100240007000405F
:100F300088130000F8B505464E480E460068C00705
:100F4000C00FB0420AD24B480168490849003143FA
:100F500001600068C007C00FB04270D12878464CCD
:100F6000800705D56068F0218843A9680843606060
:100F70002878C00753D06868012817D0022818D0F5
:100F8000032819D021688907002958DA616889087F
:100F9000890001436160FFF7ABF9696807460129E1
:100FA00013D002291DD0032927D034E021688903FA
:100FB000EAE721688901E7E7616BC903E4E7FFF726
:100FC00097F9C11B2D48814223D860680007800F24
:100FD0000128F4D123E0FFF78BF9C11B2748814298
:100FE00017D860680007800F0228F4D117E0FFF7D8
:100FF0007FF9C11B214881420BD860680007800F30
:101000000328F4D10BE0FFF773F9C11B1B488142A1
:1010100001D90320F8BD60680007800FF3D115489F
:101020000168C907C90FB1420BD9016849084900D5
:10103000314301600068C007C00FB04201D00120F9
:10104000F8BD2878400706D5606807210902884363
:10105000E9680843606000F02DF86168084A0906F5
:10106000090F515CC840074908600020FFF75EF98E
:101070000020F8BD0020024000100240881300004C
:10108000642B0008580000200148006870470000E9
:10109000580000200448054900684968044A490589
:1010A000490F515CC84070475800002000100240B2
:1010B000742B000830B516A30FCB89B06C460FC453
:1010C00017A30FCB0FC41A494A680C2014460440DA
:1010D0001848042C05D0184B082C04D00C2C00D137
:1010E000184609B030BD9402240F6D462C5DC96AC4
:1010F00004AD0907090FD203695C920F022A02D0DE
:10110000032A00D11846FEF7F3FF6043E9E7000029
:1011100002030405060708090A0B0C0D0E0F101038
:101120000102030405060708090A0B0C0D0E0F1037
:101130000010024000127A00006CDC02FEB504468A
:101140000078F04EF04DC00748D068680007800F67
:1011500001281FD068680007800F022804D1686842
:10116000C003800F022815D06168012919D0012021
:101170008004002901D0052917D02968B1432960CE
:10118000296881432960606800281BD0FFF7B0F808
:10119000074613E02868800320D56068002876D0D1
:1011A0001CE0286830432860EDE729680143296086
:1011B000F7E7FFF79DF8C01B642869D8286880030B
:1011C000F7D50BE0FFF794F8074604E0FFF790F837
:1011D000C01B6428F1D828688003F7D420788007E2
:1011E0003ED568680007800F14D068680007800F3C
:1011F000022804D16868C003800F01280AD0E06883
:10120000002828681DD0012108432860FFF770F8E6
:1012100007460BE0286880070BD5E068012836D127
:1012200007E0FFF765F8C01B0228C6D828688007CA
:10123000F7D52868F82188432169C9000843286048
:101240000EE0400840002860FFF752F8074604E02F
:10125000FFF74EF8C01B0228AFD828688007F7D4E4
:101260002078000724D5E0690028686A11D00121A0
:1012700008436862FFF73CF8074604E0FFF738F8D8
:10128000C01B022899D8686A8007F7D510E036E1BC
:10129000D1E0400840006862FFF72AF8074604E002
:1012A000FFF726F8C01B022887D8686A8007F7D4A2
:1012B000207804274007002861DA00200190E869BF
:1012C000C00008D4E969B8060143E961E969014051
:1012D0000120009101908D480168C90511D4016871
:1012E000821511430160FFF703F8009005E0FEF757
:1012F000FFFF0099401A642897D884480068C00509
:10130000F5D5A06801280AD0002801D0052811D001
:10131000286A400840002862286AB84302E0286A28
:10132000012108432862A068002812D0FEF7E0FFE0
:1013300000900AE0286A38432862F0E7FEF7D8FFF9
:101340000099411A7248814275D8286A8007F5D5FC
:101350000DE0FEF7CDFF009006E0FEF7C9FF009913
:10136000411A6B48814266D8286A8007F5D40198F3
:10137000002804D0E969012000078143E961207851
:10138000C00635D5606901280CD0401D686B24D09B
:1013900038436863686B400840006863FEF7A8FF45
:1013A000074622E0686B38436863686B0121084395
:1013B0006863FEF79DFF074604E0FEF799FFC01B38
:1013C000022838D8686B8007F7D5686BF821884306
:1013D000A169C900084368630AE0B8436863F4E799
:1013E000FEF786FFC01B022825D8686B8007F7D45C
:1013F0002078800637D568680007800F032813D04F
:1014000068680007800F022804D16868C003800F55
:10141000032809D0206A0028686B16D0304368631F
:10142000FEF766FF06460CE0686BC0031BD5206A1A
:10143000012864D117E05BE0FEF75AFF801B022809
:1014400056D8686BC003F7D50DE0B0436863FEF76C
:101450004FFF064604E0FEF74BFF801B022847D8EB
:10146000686BC003F7D4606A002846D06968090732
:10147000890F022943D0012636060228286805D0A4
:10148000B0432860FEF734FF044633E0B0432860E1
:10149000FEF72EFF074604E0FEF72AFFC01B0228D6
:1014A00026D828688001F7D4E86A216B000900017A
:1014B0000843E862A16AE06A084369687B22D203B4
:1014C000914308436860286830432860FEF710FFA6
:1014D000044604E0FEF70CFF001B022808D8286829
:1014E0008001F7D509E0FEF703FF001B022801D9B0
:1014F0000320FEBD28688001F5D40020FEBD012038
:10150000FEBD00000000010000100240007000401D
:1015100088130000F8B5040007D0002625464035A2
:10152000A662687F002802D005E00120F8BD2E7772
:10153000204600F04BF802236B77206801684022B8
:10154000914301600721E0680902884201D9002225
:1015500001E0012212030F273F02B84202D0884265
:1015600000D0A662276B002F05D1884201D92363E2
:1015700001E001202063A168606863690843216974
:10158000194308430123A1695B0219400843E1693B
:101590000843216A0843A16A084321680860616B17
:1015A000606AA36908431B0C0427E1683B401943A8
:1015B00008432168104348602068C1697A0291435A
:1015C000C1612666012068770020F8BD00B500687B
:1015D0000D4987B0884215D10C48C26909140A43E5
:1015E000C261C069084005900F20000300900220EE
:1015F0000021019003200291049103906946044860
:10160000FEF7C4FD07B000BD0038004000100240E6
:1016100000040048042204490428086902D09043C9
:10162000086170471043FBE700E000E070470000EE
:10163000094910B5401E884201D9012010BD074C50
:1016400060610321081F00F011F90020A06107204C
:101650002061002010BD0000FFFFFF0000E000E05F
:1016600010B5FFF7E3FF10BD70B5040005D02546A7
:101670006035687A002802D006E0012070BD0020A5
:101680002872204600F026F824206872206801683D
:10169000490849000160204600F0DEFB0128EDD03A
:1016A000606A002802D0204600F036FB20684168BE
:1016B0000922D20291434160206881682A22914325
:1016C000816020680168012211430160204600F01A
:1016D00089FB70BD00B500680E4987B0884217D1FC
:1016E0000D48C269012149040A43C261C06908402A
:1016F00005900C2000900220019000200290032011
:1017000003900120049009206946C006FEF73EFDC3
:1017100007B000BD0044004000100240FEE700009A
:1017200010B504490448FEF70BFD0249491E087034
:1017300010BD00001900002004000020F0B51D4875
:1017400087B04269012149040A43426142690A4063
:101750000592426949000A434261406909270840ED
:10176000FF060590002280213846FEF7BBFDFF26CC
:101770000936002231461048FEF7B4FD80200024CF
:101780000125009002946946019503943846FEF7BE
:10179000FDFC01946946084800950294FEF7F6FCAA
:1017A000029469460448009601950394FEF7EEFC06
:1017B00007B0F0BD001002400004004810B5114809
:1017C0000F490160FF21053141600021072281603E
:1017D00012020161C26001224161920482610162D0
:1017E00010224162C26181620722C2620163082144
:1017F0004163FFF78FFE002800D0FEE710BD000018
:10180000003800402001002010B50C480A49016052
:101810004B214902416000218160C1600161816109
:10182000C1610C22016242614162FFF71DFF002885
:1018300000D0FEE710BD00000044004084010020FD
:1018400010B500220549064800F0B8FD05490448D6
:1018500000F0D9FF024801F027F810BD2000002059
:10186000F401002060000020704700008307FF2281
:10187000DB0E9A408907090E994000280BDA000711
:10188000000F0838830808489B001818C369934361
:101890000B43C3617047830804489B001B181868FA
:1018A000904308431860704700ED00E000E400E05A
:1018B000F0B585B00446002069468880264620366B
:1018C00078E19A8917073F0F26D0B9000291425A52
:1018D0009A80998809047DD5BE490A4002994252EE
:1018E00038461C2148430519FF350935A87A0028D8
:1018F000206870D029788A00825A52046CD5502210
:10190000125ACB00B44912185918515A8905890D39
:1019100000917DD0EA88BDE09A89D20627D401885B
:10192000AE4A25461140018020685021095A2835C9
:1019300008182978CA00A8495118405A8005800D16
:101940002064A16B0818A06300212046FEF74DFD1E
:1019500030790028B4D068690028B1D1307980216D
:1019600008432168403188810020307122E12546FA
:10197000FF35028809359A809B881B0519D5098A8D
:1019800009182878C2009448001D1018085A2946E2
:1019900083059B0DAB61AA88E431206800F024F92F
:1019A00020688C4A0188114001802046FFF70AFA1E
:1019B00000E1694689880904D8D58649864F0A40DE
:1019C000028020685021095A3F1D09182878C0005C
:1019D000C01902E085E03DE04FE0085A83059B0D09
:1019E000AB6108D0AA882969206800F0FDF8A969D0
:1019F00028694018286100212046FEF702FD206872
:101A000001464030008A4018C119E8683E2800E0CD
:101A100044E00AD9C202120CC00601D1521E92B291
:101A200090020122D203104306E0C203120CC00749
:101A300001D0521C92B2900208802168684A08883E
:101A4000104001221203504052005040654A10439A
:101A50000880AFE05021095A0A182978CB005E4966
:101A6000091D5918515A8905890D009121D0AA885C
:101A70002969009B00F0B8F81BE05022CB00125AF5
:101A800055491218091D5918515A8905890D009197
:101A900004D02A892969009B00F0A6F829782068DB
:101AA0008A004E4B815A803319404E4B40331943C4
:101AB0008152A96900980818A861296900980A1834
:101AC0002A616B69002B03D0E9680098814204D930
:101AD00029782046FEF795FC03E029782046FEF79A
:101AE000FFFE68468088000664D51C2047432068B6
:101AF00002993A4A415A3D191140029A28358152B9
:101B0000A87A0028206811D029788A00825C5206C1
:101B10001ED55022125AC90012182F480818105A00
:101B200083059B0DAB6124D0EA881EE05021095A41
:101B300009182878C20028481018085A83059B0DF8
:101B4000AB6121D0AA882969206800F062F81BE007
:101B50005022125AC90012181F48001D0818105AA6
:101B600083059B0DAB6104D02A892969206800F0A8
:101B700050F8287822688000184B115A8033194099
:101B8000174BF1331943115220685021095A091893
:101B90002878C20010481018085A8005800DA861E6
:101BA00029690A182A616B692978002B20460DD013
:101BB000FEF760FF2068014640318A886B469A81B3
:101BC000120400D57DE6002005B0F0BDFEF70DFC47
:101BD000F0E700008F0F0000020400000F8F0000EC
:101BE0008FBF000080800000101810B50122920203
:101BF0005C088018002C07D002880A70120A4A700C
:101C0000801C891C641EF7D1DA0701D000780870A7
:101C100010BD101801225B1C920210B55B088018E1
:101C2000002B08D04A780C78120222430280801CD4
:101C3000891C5B1EF6D110BD7047704710B5FEF7CA
:101C40005DFBFFF70DFD10BD10B598B02020009092
:101C500001200024089009946846FFF76FFA0028D5
:101C600000D0FEE707201490032015901694012160
:101C7000179414A8FFF75EF9002800D0FEE70E487D
:101C80000D90109413940DA8FFF7C4F8002800D00D
:101C9000FEE7FFF7F9F97D21C900FEF729FAFFF702
:101CA000C7FC0420FFF7B6FC00221146501EFEF7C9
:101CB0007BFB18B010BD0000020002001248016852
:101CC0000122114301604168104A114041600168DE
:101CD0000F4A1140016001680122920491430160A2
:101CE00041683F22120491434160C16A0909090118
:101CF000C162016B074A11400163416B4908490009
:101D00004163002181607047001002400CB8FF0859
:101D1000FFFFF6FE2CFEFCFF10B5818CC90707D033
:101D200001684A6801235B049A43836A1A434A6044
:101D3000818C890707D501684A6801231B049A43EF
:101D4000C36A1A434A60818C490707D501684A680B
:101D500001239B049A43036B1A434A60818C090751
:101D600007D501684A680123DB039A43436B1A4392
:101D70004A60818CC90607D50268916801231B035C
:101D80009943836B19439160818C890607D501685B
:101D90008A6801235B039A43C36B1A438A60818C70
:101DA000490612D503685A6801210905046C8A4363
:101DB00022435A60026C8A4207D1026851680323A9
:101DC0005B059943436C19435160818C090607D523
:101DD00001684A680123DB04806C9A4302434A602D
:101DE00010BD0000F8B500260446C666FEF780FA6E
:101DF000054616492068884202D0154988421DD1FF
:101E00000068144F000709D501212B46002249051F
:101E10002046009700F0CEF800280DD12068006819
:101E200040070BD501212B4600228905204600974B
:101E300000F0C0F8002801D00320F8BD2020603455
:101E40006072A07226720020F8BD000000380140C8
:101E500000440040FFFFFF01F8B504462369A26873
:101E6000E5691A43636910202B43002125681A4352
:101E70002B680E46474F3B4013432B6023685A683C
:101E800003252D03AA43E5682A435A60236AA26901
:101E900025681A43AB680B273F02BB431343AB6073
:101EA0003D4F25683D4B0203BD420AD11B6B9B078A
:101EB0009B0F20D0012B14D0022B14D0032B1BD14D
:101EC0000DE0374FBD4210D11B6B03273F043B4051
:101ED00011D09B1A05D09B1A05D093420CD1022039
:101EE0000AE0042008E0082006E02E4B9D4202D0C4
:101EF0002D4B9D4200D100200123E769DB039F4267
:101F000022D100280CD002280DD0042813D0082894
:101F100017D001260A0912010807400F10432EE0CE
:101F2000FFF7B8F809E06168204A48088018FEF712
:101F3000DFF881B2EEE7FFF7BDF8616840004A08BC
:101F4000F4E761684808F1E7002808D0022809D0C2
:101F500004280CD0082815D001263046F8BDFFF71C
:101F600099F806E06168124A480880180DE0FFF70A
:101F7000A1F861684A088018FEF7BAF880B22168B3
:101F8000C860EAE761684808C018FEF7B1F880B297
:101F9000E860E2E7F369FFEF00380140001002401B
:101FA0000044004000480040004C00400024F40081
:101FB00000127A00FFB581B017460E4604460A9D0E
:101FC0001DE0681C1BD0002D05D0FEF791F9049987
:101FD000401AA84213D920680168FF22A132914318
:101FE00001602068816849084900816020206034D0
:101FF0006072A07200202072032005B0F0BD20683E
:10200000C1693046884304D00020B842D9D00020AE
:10201000F3E70120F9E710B58522920012585268C3
:102020009047002010BD134610B50A46002100F06D
:1020300005FB002010BD134610B50A46002100F034
:10204000BBFB002010BD10B50446802100F086FBCC
:102050000021204600F082FB10BD10B5FF210522B3
:10206000F5310A5000231A46194600F0E7FA00201D
:1020700010BD10B5FF230224F5331C5082611346B6
:10208000C2610A46002100F097FB002010BD10B588
:10209000FF210422F5310A5000231A46194600F0A8
:1020A0008BFB002010BD000010B50A46024903A0BA
:1020B00000F0D4F8004810BD4C06002048494420E8
:1020C000436F6E6669670000122008800048704701
:1020D0004000002010B50A46024903A000F0BEF8F7
:1020E000004810BD4C06002048494420496E7465E4
:1020F0007266616365000000042008800048704734
:102100003C00002010B50A46024903A000F0A6F8E2
:10211000004810BD4C06002053544D6963726F6532
:102120006C656374726F6E696373000010B50A4664
:10213000024903A000F092F8004810BD4C060020B0
:1021400053544D33322048756D616E20696E74654D
:10215000726661636500000010B50A46024903A07B
:1021600000F07CF8004810BD4C06002030303030C4
:10217000303030303030314100000000F8B50D46CD
:1021800004464988FF300A0AFF300230130000F08D
:10219000BEFC084905091649493E46490069237CA9
:1021A00002682AE0217C02264069002905D0C16A24
:1021B000684688470146467040E0816AF8E7C9B240
:1021C0000B0000F0A4FC0604080F13171E2F006973
:1021D000227C436802E00069227C836869461046DD
:1021E000984712E00069227CC368F7E70069227C07
:1021F0000369F3E70069237C426969461846904702
:1022000003E00069227C8369E8E7014616E0217C4F
:10221000002907D14069416B68468847F5E7217C72
:10222000002904D029462046FFF70DFFF8BD40697C
:10223000016B68468847072201464270684600885D
:102240000028F3D0EA88002AF0D0824200D9024662
:10225000684602802046FFF70CFFF8BD70B50023EA
:1022600000281CD00446002502E06D1CEDB2641C61
:102270002678002EF9D16C00A41C1480CC540322C3
:102280005B1CCA5400245B1C06E0CA545B1CDAB217
:102290008C54521CD3B2401C0278002AF5D170BD78
:1022A000FF300021FF30023080690173084670471B
:1022B00010B50446812100F0ADF8FF34FF3402343C
:1022C000A069002803D000F0FDFB0020A0610020E1
:1022D00010BD0000222101800048704798000020B6
:1022E0000A21018000487047C800002070B50546EB
:1022F000002404230322812100F08AF9102000F039
:10230000E3FBFF35FF350235A861002803D000212B
:102310000173204670BD0124FBE7000070B5432324
:102320000022DB000D781B586026144635401BD078
:10233000202D3ED14A78022A13D0032A0AD00A2A35
:102340000BD00B2A03D0FFF77EFE022070BD8878E9
:1023500018602EE00122194622E04888000A5860E1
:1023600027E00122191D1BE04D78062D04D00A2D0F
:1023700019D00B2D1DD11AE04B881B0A222B02D03D
:10238000212B06D00BE0CA884A2A00D94A220A4CDF
:1023900005E0094CCA88183C092A00D909222146BF
:1023A000FFF767FE05E0012219460831F8E7887853
:1023B0009860002070BD0000D400002010B50028F7
:1023C00013D0C31DFF33FA335C69002C01D0002405
:1023D0005C61002900D01961FF210123FD310B54FC
:1023E000027000F0BFF8002010BD022010BD10B533
:1023F000FF30FF3002300024006AFEF7C5F80028E5
:1024000006D0012801D0022801D0022400E00124D6
:10241000204610BD10B5FF30FF3002300024006AA6
:10242000FDF7FEFF002806D0012801D0022801D0C8
:10243000022400E00124204610BDFEB50446FF3012
:10244000E51DE130FF35FA3513460190002908D02B
:1024500068694269002A49D00198007F032843D067
:1024600044E02646FF3681362046716F143002293B
:1024700034D1C26881680092914207D9891A81607B
:102480008AB219462046FFF7D6FD13E04068114690
:102490000746FDF72DFE002913D10098874210D37F
:1024A000B06F87420DD2002211462046FFF7C3FDD0
:1024B0000020B06700231A461946204600F0BEF8F7
:1024C0000CE06869C168002905D00198007F0328E5
:1024D00001D1204688472046FFF7BFFD2878012814
:1024E00004D10020287001E0204690470020FEBD66
:1024F00070B50546FF35E1352B46203316460446B8
:10250000002907D058698269002A29D0287F03282A
:1025100024D025E0FF21F531E01D0959FD300329C4
:102520001ED18268C1688A420BD9511A8160C06885
:10253000814200D301468AB231462046FFF773FD3F
:102540000EE058690169002904D0287F032801D1D1
:10255000204688472046FFF79AFD01E02046904735
:10256000002070BD10B51949C41DC861FF34184959
:10257000FA34184821620860022208208A60486004
:102580000020C8608861C8610A6108620846FEF7D9
:102590006FFB002804D0FF2135310FA000F0B6FA00
:1025A000002218231146206AFDF702FF582300225B
:1025B0008021206AFDF7FCFEFF23013300228121E8
:1025C000206AFDF7F5FE002010BD00002C0600205B
:1025D0002C040020005C00402E2E2F5372632F75B8
:1025E0007362645F636F6E662E630000FF30CA091A
:1025F000FF3049060230490E1C23006A594308186F
:10260000002A01D0203001E0FF300130807A70478D
:1026100070B5FF301D46FF30023013460024006ABB
:102620002A46FEF70BF8002806D0012801D0022820
:1026300001D0022400E00124204670BD10B5FF3017
:10264000FF3002300024006AFEF74AF9002806D065
:10265000012801D0022801D0022400E001242046F4
:1026600010BD70B50022044640231146FFF7D0FF8D
:102670004025FF20113005512B46002280212046A5
:10268000FFF7C6FFFF200121FD3025620155E01D47
:10269000FF30FA308169002904D04069217942680D
:1026A00020469047002070BDFF30E130417F017728
:1026B0000020704710B5FF21FD31095C032906D1C8
:1026C000852189000958C969002900D08847002060
:1026D00010BD01740020704710B5FF30FF3002308C
:1026E0000024006AFEF758FB002806D0012801D01C
:1026F000022801D0022400E00124204610BD70B55C
:1027000004464120C0002018054600F068F8214624
:10271000FF3181310122084680304A67C2898A67C9
:10272000007AC106C90E0AD001290DD0022910D0A5
:10273000C109C901204600F011F8002070BD2946EA
:10274000204600F0B6F8F8E72946204600F09DF94B
:10275000F3E72946204600F023F9EEE710B5FF30F5
:10276000FF3002300024006AFEF73AF9002806D054
:10277000012801D0022801D0022400E001242046D3
:1027800010BD10B5FF30FF3002300024006AFEF7A4
:1027900024FB002806D0012801D0022801D0022401
:1027A00000E00124204610BDFF30E130017F417779
:1027B000042101770020704710B5FF30FF30023050
:1027C0000024006AFEF756F9002806D0012801D03F
:1027D000022801D0022400E00124204610BD0A781E
:1027E00002704A784270CB788A781B02D2184280F5
:1027F0004B790A791B02D21882808A79C979090239
:102800005118C180704702460020002904D0FF32D1
:10281000FF320232516170470220704710B58522A5
:10282000920012580224002A04D01268904700280F
:1028300000D10024204610BD70B50E468978194D90
:1028400004462970012904D931462046FFF7FBFBD5
:1028500070BD2046FF30E130027F022A15D0032AE6
:10286000F2D1002917D0606888420AD0C1B2204650
:10287000FFF7D1FB297861602046FFF7CFFF0228E0
:10288000E2D02046FFF703FC70BD0029F9D00322F7
:1028900061600277F0E70222027720466160FFF76D
:1028A000BAFBEEE75C00002010B5FFF76AFF0020DE
:1028B00010BDF8B500220092C61DFF364C781746B1
:1028C000FA3632460125203A230000F020F90A3C6E
:1028D000564150410906412B2841FFF74FFC5DE06E
:1028E00004468888002818D1C888002815D188781F
:1028F00017464606107F760E03280ED0BE77314667
:102900002046FFF7E9FE2046FFF7C1FB002E02D06C
:102910000220387742E03D7740E0204618E0FFF79C
:102920008BFF3BE0CB88012B12D1127F022A02D011
:10293000032A0DD104E0012201460831876013E02B
:102940000122011D10E0127F022A04D0032A02D0C6
:10295000FFF779FB22E0C5607168002901D00321EF
:10296000C160014602220C31FFF783FB16E00446EA
:102970004888012812D1756009E00446107F0228BA
:1029800001D00328C9D14888012807D17760706930
:102990008268204690472046FFF779FB0098F8BDF3
:1029A000F8B504460D462878E61D4006FF36002798
:1029B0000979800FFA36012809D06A783046203824
:1029C000002A38D0012A1ED0032A3DD106E07069C2
:1029D00029468268204690470020F8BD007F0228E3
:1029E00017D003282CD16888002806D1002904D0EC
:1029F000802902D02046FFF7B1FE7069294682681F
:102A00002046904713E0007F022802D0032817D108
:102A100004E0002918D080291AD115E06888002820
:102A200012D1480603D02046FFF7E1FCE5E7204637
:102A3000FFF72DFB08E0007F022807D003280BD00A
:102A400029462046FFF7FFFA3846F8BD4806FBD076
:102A50002046FFF783FEF7E7C80904D04806400D7B
:102A60000519143504E04806400D0519FF350535F4
:102A70002046FFF7BBFD002800D00120286002227D
:102A800029462046FFF7F5FADEE770B50446FF3029
:102A9000E130007F0D4603280FD1287901280CD89A
:102AA000852080000059826820469047E8880028E9
:102AB00006D12046FFF7EBFA02E02046FFF7C3FA03
:102AC000002070BD704700000048704718040020C7
:102AD00010B50248FEF746F810BD00002C04002097
:102AE00002480121017000787047000000000020BA
:102AF00001207047002070470248012101700078D2
:102B0000704700000000002000207047FEE730B44E
:102B10007446641E2578641CAB4200D21D46635D7A
:102B20005B00E31830BC184702E008C8121F08C158
:102B3000002AFAD170477047002001E001C1121F3E
:102B4000002AFBD17047FDF7E1FBFFF77DF8FEF7A8
:102B5000F5FDFEF733FEFEF757FEFEF7E1FDFEF74B
:102B60006FFEFEE700000000000000000102030409
:102B70000607080900000000010203049C2B00085E
:102B80000000002020010000282B0008BC2C0008B9
:102B900020010020380B0000382B00080100000045
:102BA000E12A0008F92A0008F52A0008092B000884
:102BB000F12A00080000000000000000C920000801
:102BC000F9200008052100082D21000859210008DE
:102BD000A9200008D52000080403090412010002FE
:102BE0000000004083042B57000201020301000093
:102BF0000000000000127A0000000000ED22000832
:102C0000B12200081D2300080000000000000000A1
:102C1000A1220008000000000000000000000000E9
:102C200000000000D5220008D5220008D5220008A7
:102C3000E122000809022200010100E0320904003B
:102C4000000103010200092111010001224A0007CD
:102C500005810304000A0000092111010001224A34
:102C6000000000000A060002000000400100000011
:102C700005010902A1010901A100050919012903A2
:102C800015002501950375018102950175058101E6
:102C900005010930093109381581257F750895032B
:102CA0008106C0093C05FF09011500250175019544
:0C2CB00002B12275069501B101C00000C0
:04000005080000C12E
:00000001FF
