:020000040800F2
:10000000083B0020D5000008AD210008D91D0008DC
:1000100000000000000000000000000000000000E0
:10002000000000000000000000000000DB2C0008C1
:1000300000000000000000007D250008DD2C000805
:10004000E7000008E7000008E7000008E7000008F4
:10005000E7000008E7000008E7000008E7000008E4
:10006000E7000008E7000008E7000008E7000008D4
:10007000E7000008E7000008E7000008E7000008C4
:10008000E7000008E7000008E7000008E7000008B4
:10009000E7000008E7000008E7000008E7000008A4
:1000A000E7000008E7000008252B0008E70000082B
:1000B000E7000008E7000008E7000008413C0008EE
:1000C0000348854600F076F800480047FD540008D4
:1000D000083B00200448804704480047FEE7FEE74D
:1000E000FEE7FEE7FEE7FEE75D2D0008C100000821
:1000F00030B50B46014600202022012409E00D46C0
:10010000D5409D4205D31D469540491B2546954047
:1001100040191546521E002DF1DC30BD10B5202AC5
:1001200004DB0846203AD040002110BD0B46D340E6
:10013000D0402024A21A91400843194610BD032143
:10014000001D401E037812021A43491EF9D51046BD
:100150007047F0B51FB40646002082B00546402423
:10016000019100901BE0019922460F463046FFF7AF
:10017000D5FF049A059B801A994110D31046194661
:10018000224600F029F8361A8F41019722460120B5
:100190000021009F00F020F838184D4100902046C3
:1001A000641E0028DFDC019B00982946324607B018
:1001B000F0BD0000064C0125064E05E0E36807CCC3
:1001C0002B430C3C98471034B442F7D3FFF77CFF25
:1001D0003C5D00085C5D000810B5202A04DB014688
:1001E000203A9140002010BD914020239C1A0346E4
:1001F000E3401943904010BD70B58C180578401C41
:100200006B075B0F01D10378401C2A1106D10278DD
:10021000401C03E006780E70401C491C5B1EF9D19F
:100220002B0705D40023521E0DD40B70491CFAE78E
:100230000378401CCB1A921C03E01D780D70491CFA
:100240005B1C521EF9D5A142D8D3002070BD00B569
:10025000002200F001F800BD30B50E4B05465C7A77
:100260000120012C15D8587A00241C54587A80009B
:10027000C01845605D7A184608302A54587A421CE6
:100280005A72303008703A2048702F208870CC7035
:10029000002030BDF80A002070B50024014620314E
:1002A0004A78022A03D004218163012416E00268FF
:1002B00013680E25AB431360026813685B085B008C
:1002C00013600122056C1346AB40C56B6B604A702E
:1002D00000220A70416B002900D08847204670BD7B
:1002E000F8B5002393E0224601249C40A446224016
:1002F0007ED04C68022C01D0122C0CD1DC08A4005A
:1003000027183C6A5D07ED0E0F26AE40B4430E6918
:10031000AE4026433E6205685E000324B4400F7978
:10032000A543BF07BF0FB7402F4307604D68012D9E
:1003300005D0022D03D0112D01D0122D0ED18568CC
:10034000CF68A543B7402F43876047686546AF43F2
:100350000D79ED06ED0F9D403D434560C568A54311
:100360008C68B4402C43C4604C68E4004ED52B4CE0
:10037000A56901263543A561A4699D083440009410
:10038000274CAD002F19BC689D072E0F0F25B540D7
:10039000AC430925ED06A84201D1002514E0214D0A
:1003A000A84201D101250FE01F4DA84201D102252D
:1003B0000AE01E4DA84201D1032505E01C4DA842CC
:1003C00001D1042500E00525B5402543BD60194C49
:1003D00025684E689543F60300D51543256065688A
:1003E0004E689543B60300D515436560A56800E0E7
:1003F0000CE04E689543F60200D51543A560E5680C
:100400004E689543B60200D51543E5605B1C0A684B
:100410001446DA4000D066E7F8BD00000010024044
:10042000000001400004004800080048000C00489B
:100430000010004800040140002A01D0816170478B
:10044000816270470148006870470000A0000020EA
:1004500002480168491C016070470000A0000020AC
:1004600010B506480168102211430160002000F019
:1004700007F800F017F8002010BD0000002002402F
:1004800010B5044600F0B6FE7D21C900FFF730FE2E
:1004900001F02CFC00222146501E00F02FF8002015
:1004A00010BD000008B50F48816901221143816128
:1004B000816911400091C26901040A43C261C069A7
:1004C0000022084000901146501F00F017F800224B
:1004D0001146901E00F012F800221146501E00F046
:1004E0000DF808BD00100240C106C90E0120884069
:1004F000014908607047000000E100E010B501F01C
:1005000057FE10BD10B50C0606D54906490E1C2431
:1005100061430818283004E01C2461430818FF30A8
:10052000093099B2002A06D001228272C180190CCA
:100530000181002010BD002282728180F9E71C2217
:100540004A43121810B5FF30FF300230926BC06979
:1005500002F033FF10BD1C224A43121810B5FF30C1
:10056000FF32FF30013202309269C06902F080FF31
:1005700010BD0000F0B54A06520E13461C256A4312
:10058000CC091218002C01D0283201E0FF320932C8
:1005900004461370C909FF345170E134217A0129EE
:1005A0003DD001212172957A494B002D494955785A
:1005B00037D0002D05681678AC465BD0B600AD5B31
:1005C0006F0404D5444F0D403D436746BD53056855
:1005D0001678AC46B600AD5B6F0605D53C4F0D40B6
:1005E00040373D436746BD5315780668AF00F55B5D
:1005F0000D4039490D43F553364F117830373D40A2
:10060000066889001D4375521178334A00688900D5
:10061000F13A15401D43455200202072F0BD0220E2
:10062000F0BD002D05681678AC4610D0B600AD5B65
:100630006F0605D50D40264940310D4361468D5367
:1006400005681078234A8100685A30320EE0B600FF
:10065000AD5B6F0404D50D401F490D4361468D53BA
:10066000056810781C4A8100685AF13A1040184316
:100670006852D1E7B600AD5B6F0404D5164F0D404C
:100680003D436746BD5305681678AC46B600AD5B82
:100690006F0605D50E4F0D4040373D436746BD53AD
:1006A00015780768AE00BD5B0D40094940310D4328
:1006B000BD53094F1678F13F3D400168B6001D4318
:1006C0008D531178034A890000683032A1E7000099
:1006D000808000008F8F000080C00000F0B54B06C6
:1006E000CA095B0E002A04D01C225A431218283271
:1006F00004E01C224A431218FF320932002494708D
:1007000013700346C909FF335170E133197A012987
:100710001AD00121197251781A4C002911780668F3
:1007200014D08D00715B4F0603D52140164C214338
:100730007153117800688A00124C815A303421407C
:1007400010246140202414E00220F0BD8D00715B74
:100750004F0403D521400D4C21437153117800689B
:100760008A000A4C815AF13C214001242403614053
:1007700064006140044C403C2143815200201872C7
:10078000F0BD00008F8F0000C080000080C000001E
:10079000002070474906490E1C2251430818FF30BB
:1007A0000130008C80B27047F0B54D066D0E2E46BC
:1007B0001C246543CF092C18002F01D0283401E0F8
:1007C000FF3409342670C90961700146FF31E260C7
:1007D000E131E3708C46097A01290DD0012261468E
:1007E0000A72E2789349002A08D0012A20D0022A0E
:1007F0000DD0032A25D111E00220F0BD2378026834
:100800009B00D55A0D40FF35FF35023504E02378B3
:1008100002689B00D55A0D40D55212E02278036839
:1008200092009D5A0D40032149026918995208E02F
:10083000237802689B00D55A0D400121890269186E
:10084000D15226780768B5007B5B7B497B4A0B4019
:10085000134333437B53A57A002D53D02578784E2C
:100860000B400768AD0033437B53E38850265D0897
:1008700003686D00F65AF6182378DF0001239B0207
:10088000FB18F552238950265D0803686D00F65A5F
:10089000F6182378DF005311FB18F55263780768C8
:1008A000002B237875D09D007B5B5E0403D5654EDD
:1008B0000B4033437B53237807689D007B5B5E06C8
:1008C00004D55E4E0B40403633437B532378056896
:1008D0009E00AB5B0B405B490B43AB53564E2178FC
:1008E000303633400568890013436B522178554CEC
:1008F00000688900F13C23401343435200206146C5
:100900000872F0BD6378002BA3881FD05D080368D0
:100910005026F65A6D00F6182378DF0001239B025B
:10092000FB18F552237807689D007B5B5E0604D5B3
:100930000B40424940310B437B53016820783E4CC9
:100940008300C85A30342040202440E05D0803680A
:100950005026F65A6D00F6182378DF003A4BFB1844
:10096000F55203685025ED5A374EEB182578B61C22
:10097000ED00AD195E19E3683E2B0BD9DD022D0C9D
:10098000DB0601D16D1EADB2AB020125ED032B4399
:1009900007E020E0DD032D0CDB0701D06D1CADB2BC
:1009A000AB023380237807689D007B5B5E0403D530
:1009B0000B4024490B437B5301682078214C830072
:1009C000C85AF13C20400124240360406400604088
:1009D0001043C85292E79D007B5B5E0403D5194E1D
:1009E0000B4033437B53237807689D007B5B5E0697
:1009F00004D5124E0B40403633437B5323780568B1
:100A00009E00AB5B0B400D4940310B43AB530D4E89
:100A10002178F13E3340012636037340760073405F
:100A20000568890013436B522178034C89000068E4
:100A3000303460E78F8900008F8F000080800000D5
:100A40008081000080C0000004040000F0B54D0665
:100A50006D0E1C246C432418FF3409346361226139
:100A60000022A26162702570E5681E46AB4201D982
:100A70002B46F21A6261A67A49060122890DD20339
:100A8000002E2F4D06680CD05027BF5BBE192F1FBC
:100A9000C91976183E2B15D9D902090CDF060CD0DE
:100AA0000DE05027BF5B4919BE19751820E0890277
:100AB000114300E08902298032E0491E89B289028F
:100AC000114306E0D903090CDF0701D0491C89B2A4
:100AD000890231806178002902D0012918D01FE0F5
:100AE00001685026765A71182678F60075194D1946
:100AF0003E2B06D9D902090CDB06D8D1491E89B292
:100B0000D5E7D903090CDA07D4D0491C89B2D1E75B
:100B100001685022525A51182278D20052198B5231
:100B200001682078074B8200885A184001231B0374
:100B300058405B005840044B184388520020F0BDD9
:100B4000060400008FBF000080800000F0B5024660
:100B5000FF32E132137A012B0BD001244F06CB096F
:100B60007F0E1472002B06D01C237B431B182833E6
:100B700006E00220F0BD1C234B431B18FF33093352
:100B80009C701F70CE095E70012424031025114B48
:100B9000002F0BD04906C90D002E10D004680E4E50
:100BA000605A304068401843605210E001680B4EB4
:100BB00008883040604068401843088007E00568B6
:100BC000064E685A303E304060401843685200205C
:100BD0001072F0BD80800000BF8F0000BFBF00001A
:100BE000F0B506461D464806400E1C2343439C199B
:100BF000E563A2630022226401232834637020701D
:100C0000E0682B46854203D90546181A606100E06A
:100C10006261A07A2A4F002810D0227830689200B2
:100C2000825C49065206890D002A16DA5022125AB1
:100C300010183A1D89184552228914E0ABB2A288D7
:100C40002169306801F087FC30685021095A081882
:100C50002178C900C919455220E05022125A1018B3
:100C6000C9194552E288ABB22169306801F073FCC2
:100C700061781448002902D0012907D00EE02178BC
:100C800032688B00D15A01400F4805E02178326864
:100C90008B00D15A01400D480143D1522078316870
:100CA0008200084B885A30331840102358402023C4
:100CB0005840054B403B184388520020F0BD0000CF
:100CC000020400008F8F0000C080000080C0000080
:100CD00070B50446006840308088C00B02D02046C2
:100CE00001F088FA20684030818849050AD581885A
:100CF000334A11408180204600F0DAF80021204676
:100D000000F000F9206840308188490403D58188CB
:100D10002C4A11408180206840308188890403D5A5
:100D20008188294A114081802068403081880425CB
:100D3000C904002910DA0188A9430180BD20216877
:100D4000000240310880204600F0BEF820684030A4
:100D500081881E4A114081802068403081880905C1
:100D600017D581881A4A1140818020684030018857
:100D70000822114301802068403001882943018006
:100D8000206840308088C043C00402D5204600F06F
:100D9000E3F8206840308188890506D581880D4AAE
:100DA00011408180204600F0A5F8206840308188FD
:100DB000C90503D58188084A1140818070BD0000B3
:100DC000FFFB0000FFBF0000FFDF0000FFEF00009F
:100DD000FFF70000FFFD0000FFFE0000F8B5002750
:100DE0000446002807D02646FF36E136707A0025F3
:100DF000002802D005E00120F8BD3572204600F041
:100E00003BF80320707201210BE01C20784302198B
:100E10001046203041720772C572556395637F1C7E
:100E2000D5636068B842F0D800200BE01C22424332
:100E30001219FF32013255721072D57255619561E7
:100E4000401CD56162688242F0D820684030018041
:100E50002068403005802068403085802068403020
:100E60000582BF20226800024032108020342571A4
:100E700071720020F8BD000008B500680A49884278
:100E800010D10A48C2690121C9050A43C261C0697B
:100E900000220840009011461F20FFF72FFB1F2063
:100EA000FFF722FB08BD0000005C0040001002407C
:100EB00010B5C41DFF34FA340121E06902F0E9FBEA
:100EC000E06902F0AEFB10BD10B504468069002851
:100ED00006D00748016906229143016101F004FF31
:100EE000FF34FF340234E06902F0BEFB10BD0000A5
:100EF00000ED00E0FF3010B5FF300230C06902F0B5
:100F0000B9FB10BD0246FF32E132137A012B08D043
:100F100001231372002906D02030017100201072C5
:100F20007047022070470068802140308181F5E7DA
:100F300010B5872189000A580146FF31ED3110466E
:100F400002F0BDFB10BD00684030018B0122D203CE
:100F5000114301830020704710B50446FF30FF3075
:100F60000230C06902F000FCA069002804D00348E8
:100F7000016906221143016110BD000000ED00E08F
:100F8000F8B504460068434DC00352D5E869002611
:100F9000C00007D4E96928040143E961E969014017
:100FA000012600913C480168C90510D401688215EA
:100FB00011430160FFF746FA074604E0FFF742FAE3
:100FC000C01B642824D834480068C005F6D5286AB8
:100FD00003273F02384020D06168394081421CD04D
:100FE000286A2A6AB843012109040A432A622A6A44
:100FF0008A432A622862C0070FD0FFF723FA0090C5
:1010000008E0FFF71FFA0099411A2448814201D9EC
:101010000320F8BD286A8007F3D5286A6168B843C1
:1010200008432862002E04D0E8690121090788439B
:10103000E8612078C00705D0286BA168800880008F
:10104000084328632078800706D5286B032109040C
:101050008843E168084328632078800605D5286B1B
:10106000102188432169084328632068800305D53F
:10107000286B80218843A1690843286320884005A4
:1010800005D5286B40218843616908432863002007
:10109000F8BD0000001002400070004088130000FE
:1010A000F8B505464E480E460068C007C00FB0426E
:1010B0000AD24B4801684908490031430160006881
:1010C000C007C00FB04270D12878464C800705D5C4
:1010D0006068F0218843A968084360602878C007E9
:1010E00053D06868012817D0022818D0032819D0D7
:1010F00021688907002958DA616889088900014355
:101100006160FFF79FF969680746012913D002293A
:101110001DD0032927D034E021688903EAE721683C
:101120008901E7E7616BC903E4E7FFF78BF9C11BAE
:101130002D48814223D860680007800F0128F4D130
:1011400023E0FFF77FF9C11B2748814217D8606869
:101150000007800F0228F4D117E0FFF773F9C11BD5
:10116000214881420BD860680007800F0328F4D122
:101170000BE0FFF767F9C11B1B48814201D903202F
:10118000F8BD60680007800FF3D115480168C907F2
:10119000C90FB1420BD901684908490031430160C8
:1011A0000068C007C00FB04201D00120F8BD287808
:1011B000400706D56068072109028843E9680843AB
:1011C000606000F02DF86168084A0906090F515C5B
:1011D000C840074908600020FFF752F90020F8BD19
:1011E000002002400010024088130000605C0008EC
:1011F000A40000200148006870470000A4000020FF
:101200000448054900684968044A4905490F515C8A
:10121000C8407047A400002000100240705C000825
:1012200030B516A30FCB89B06C460FC417A30FCBF4
:101230000FC41A494A680C20144604401848042C6C
:1012400005D0184B082C04D00C2C00D1184609B03E
:1012500030BD9402240F6D462C5DC96A04AD0907A8
:10126000090FD203695C920F022A02D0032A00D12F
:101270001846FEF73DFF6043E9E70000020304055E
:10128000060708090A0B0C0D0E0F101001020304CB
:1012900005060708090A0B0C0D0E0F10001002407E
:1012A00000127A00006CDC02FEB504460078F04EB5
:1012B000F04DC00748D068680007800F01281FD094
:1012C00068680007800F022804D16868C003800F97
:1012D000022815D06168012919D001208004002955
:1012E00001D0052917D02968B143296029688143B5
:1012F0002960606800281BD0FFF7A4F8074613E0B8
:101300002868800320D56068002876D01CE0286813
:1013100030432860EDE7296801432960F7E7FFF7CC
:1013200091F8C01B642869D828688003F7D50BE0C2
:10133000FFF788F8074604E0FFF784F8C01B64282D
:10134000F1D828688003F7D4207880073ED56868F4
:101350000007800F14D068680007800F022804D1AE
:101360006868C003800F01280AD0E0680028286858
:101370001DD0012108432860FFF764F807460BE001
:10138000286880070BD5E068012836D107E0FFF711
:1013900059F8C01B0228C6D828688007F7D52868E6
:1013A000F82188432169C900084328600EE04008FD
:1013B00040002860FFF746F8074604E0FFF742F8D0
:1013C000C01B0228AFD828688007F7D42078000710
:1013D00024D5E0690028686A11D0012108436862B9
:1013E000FFF730F8074604E0FFF72CF8C01B02288F
:1013F00099D8686A8007F7D510E036E1D1E0400857
:1014000040006862FFF71EF8074604E0FFF71AF88D
:10141000C01B022887D8686A8007F7D42078042781
:101420004007002861DA00200190E869C00008D474
:10143000E969B8060143E961E969014001200091C9
:1014400001908D480168C90511D4016882151143C6
:101450000160FEF7F7FF009005E0FEF7F3FF00994B
:10146000401A642897D884480068C005F5D5A0685C
:1014700001280AD0002801D0052811D0286A400888
:1014800040002862286AB84302E0286A0121084324
:101490002862A068002812D0FEF7D4FF00900AE06E
:1014A000286A38432862F0E7FEF7CCFF0099411A1A
:1014B0007248814275D8286A8007F5D50DE0FEF79D
:1014C000C1FF009006E0FEF7BDFF0099411A6B488E
:1014D000814266D8286A8007F5D40198002804D094
:1014E000E969012000078143E9612078C00635D50C
:1014F000606901280CD0401D686B24D038436863B4
:10150000686B400840006863FEF79CFF074622E0D6
:10151000686B38436863686B012108436863FEF7B2
:1015200091FF074604E0FEF78DFFC01B022838D864
:10153000686B8007F7D5686BF8218843A169C900FB
:10154000084368630AE0B8436863F4E7FEF77AFF8C
:10155000C01B022825D8686B8007F7D42078800646
:1015600037D568680007800F032813D06868000724
:10157000800F022804D16868C003800F032809D0B7
:10158000206A0028686B16D030436863FEF75AFF64
:1015900006460CE0686BC0031BD5206A012864D1A5
:1015A00017E05BE0FEF74EFF801B022856D8686B01
:1015B000C003F7D50DE0B0436863FEF743FF06466E
:1015C00004E0FEF73FFF801B022847D8686BC0038A
:1015D000F7D4606A002846D069680907890F022994
:1015E00043D0012636060228286805D0B04328607B
:1015F000FEF728FF044633E0B0432860FEF722FFE1
:10160000074604E0FEF71EFFC01B022826D8286804
:101610008001F7D4E86A216B000900010843E86201
:10162000A16AE06A084369687B22D20391430843B8
:101630006860286830432860FEF704FF044604E031
:10164000FEF700FF001B022808D828688001F7D5A4
:1016500009E0FEF7F7FE001B022801D90320FEBDBA
:1016600028688001F5D40020FEBD0120FEBD0000E9
:1016700000000100001002400070004088130000CC
:1016800002480168402291430160704700380040E1
:10169000F8B504460068426881684B0605D4CB075C
:1016A00003D0530601D5E16C04E08B0705D5130682
:1016B00003D5216D20468847F8BDFF2361331942C9
:1016C000FAD09306F8D523464D064033002D09DAAB
:1016D0005D7F032D3CD0256E042635432566C56805
:1016E000856800958E060125002E08DA266E2E43A9
:1016F00026668668009606684027BE430660C805D1
:1017000006D5206E08210843206620688068009076
:10171000206E0028D0D020684168E026B1434160A7
:101720005D77900718D0206841688908890041607A
:10173000A06D0B4D002803D04563A06DFEF7ACFDF6
:10174000606D0028B8D04563606DFEF7A5FDF8BD5B
:10175000C16880680090F8BD2046FFF791FFF8BD92
:10176000352B0008F8B5040007D000262546403583
:10177000A662687F002802D005E00120F8BD2E7720
:10178000204600F04BF802236B7720680168402266
:10179000914301600721E0680902884201D90022D3
:1017A00001E0012212030F273F02B84202D0884213
:1017B00000D0A662276B002F05D1884201D9236390
:1017C00001E001202063A168606863690843216922
:1017D000194308430123A1695B0219400843E169E9
:1017E0000843216A0843A16A084321680860616BC5
:1017F000606AA36908431B0C0427E1683B40194356
:1018000008432168104348602068C1697A02914307
:10181000C1612666012068770020F8BD70B50068B8
:10182000124986B088421FD11148C26909140A437F
:10183000C261C06900240840059007204003009061
:101840000220032501A931C10A4E6946304604949D
:10185000FEF746FD012000030090012001AA31C2DD
:1018600069463046FEF73CFD06B070BD00380040CA
:101870000010024000040048FFB50646044640360A
:10188000307F002781B00D46012809D00120307734
:10189000FEF7D8FD0090707F012804D002279DE05C
:1018A000022005B0F0BD002D72D0039800286FD043
:1018B0000320707700202066A5630399A187039910
:1018C000E1872064B080F0802065E0640121A06899
:1018D000C903884205D1206801680122920311439F
:1018E000016020680168490603D401684022114361
:1018F00001600720E16800028142606823D9002866
:1019000002D0E08F01281AD121682888C86005E03C
:1019100020688168890706D52988C160E08F401E4C
:10192000E087AD1C0BE0049800283ED0401C06D098
:10193000FEF788FD0099411A0498814235D2E08F64
:101940000028E5D136E0002802D0E08F01282ED112
:10195000E08F012803D921682888C8600CE021683D
:10196000287808730FE020688168890711D5E18F16
:10197000012906D92988C160E08F801EE087AD1C4F
:1019800015E029780173E08F401EE0876D1C0EE0A2
:1019900023E00498002808D0401C08D0FEF752FD30
:1019A0000099411A0498814201D3032716E0E08F81
:1019B0000028D8D12046009A049901F0C4F80028E4
:1019C00001D020202066A068002803D12068C168CB
:1019D00080680090206E002800D0012701207077D9
:1019E0000020307738465CE7FFB5044683B001201D
:1019F000254640350090287F00270E4601280FD04D
:101A000001202877FEF71EFD0190687F616801289C
:101A10000DD0CA1FFD3A08D1A168002905D102E006
:101A2000022007B0F0BD042801D00227FAE0002E02
:101A30007CD005980028FBD006980028F8D0687F55
:101A4000042801D0052068770020206605992164CC
:101A50000699E9800699A980A6630699E187069907
:101A6000A187E06420650723E1681B02994202D840
:101A7000E888012806D920684268012109038A43C1
:101A8000426005E020684168012212031143416071
:101A900020680168490603D40168402211430160AF
:101AA000E1686068994242D9002802D0E08F01289D
:101AB00035D121683088C860E08F401EE087B61CB1
:101AC0002DE0009800280ED0E08F00280BD0206871
:101AD0008168890707D53188C160E08F401EE087A3
:101AE0000020B61C0090E88800280ED0206881688D
:101AF000C9070AD0C068059908800598801C059020
:101B0000E888401EE880012000900C98401C06D018
:101B1000FEF798FC0199411A0C9881426DD2E08F32
:101B20000028CED1E8880028CBD16EE079E00028EB
:101B300002D0E08F012862D1E08F012807D9216807
:101B40003088C860E08F801EE087B61C57E02168AF
:101B500030780873E08F401EE087761C4FE00098D5
:101B6000002818D0E08F002815D0206881688907E8
:101B700011D5E18F012906D93188C160E08F801E1F
:101B8000E087B61C05E031780173E08F401EE087E6
:101B9000761C00200090E888002824D02068816806
:101BA000C90720D0E988012912D9C06805990880A1
:101BB0000598801C0590E888801EE880E888012848
:101BC0000FD820684168012212031143416008E0E8
:101BD000017B059801700598401C0590E888401E1F
:101BE000E880012000900C98401C08D0FEF72AFCE9
:101BF0000199401A0C99884201D3032712E0E08F23
:101C00000028ACD1E8880028A9D12046019A0C9977
:101C100000F099FF002801D020202066206E0028C7
:101C200000D0012701206877002028773846F8E6A1
:101C3000042204490428086902D0904308617047CF
:101C40001043FBE700E000E070B503F009FBC007BC
:101C50002549820F08680224A04310438207D50F4C
:101C6000C3070A46DB0F083A08609D4216D0830777
:101C700010D57D26D368F600B34201D9032308E0CE
:101C8000FF26F536B34201D9147003E0642B01D965
:101C9000012313704008400028430860087880073B
:101CA00002D4D068401C00E000200F4DFF26AD1F7D
:101CB000002301362C460E34D0605800215AEA5CCD
:101CC000891889B22152B14206D9FF39013921520E
:101CD000D8B203F0F9FB02E0D8B203F0DBFB5B1CE7
:101CE000032BEADB70BD000008000020094910B595
:101CF000401E884201D9012010BD074C60610321BC
:101D0000081F00F055FA0020A06107202061002084
:101D100010BD0000FFFFFF0000E000E010B5FFF77E
:101D200093FF10BD70B5040005D025466035687A74
:101D3000002802D006E0012070BD00202872204655
:101D400000F026F8242068722068016849084900DC
:101D50000160204601F0D0F80128EDD0606A00282B
:101D600002D0204601F028F8206841680922D202FA
:101D700091434160206881682A22914381602068F4
:101D80000168012211430160204601F07BF870BD1B
:101D900000B500680E4987B0884217D10D48C26966
:101DA000012149040A43C261C069084005900C2022
:101DB0000090022001900020029003200390012057
:101DC000049009206946C006FEF78AFA07B000BDF4
:101DD0000044004000100240FEE770B50546FF30A9
:101DE000FF3002308469E01DFF30FA30017E0029A7
:101DF00009D14069002806D0607A002803D101216A
:101E0000284601F08BFC8121284601F087FC607A8E
:101E1000022807D18320800022181F230121284691
:101E200001F0ECFB70BD0000F8B5C71DFF37FA37B5
:101E3000BC690646E51DFF35FA35286928636869DF
:101E400068630121304601F060FB1F280BD1264951
:101E5000E868884207D1697E012904D8A87E002855
:101E600001D0102808D9697E20230522304600F0D1
:101E7000D6FD0220607209E01C482218304600F0AE
:101E800093FB0028207A07DA052803D03046FFF7B5
:101E9000A4FFF8BD012122E00228FAD00128F8D0E1
:101EA0000328F6D06189002919D0BD693046EE1D9E
:101EB000FF36FA36224673690C328B4200D219463D
:101EC0008BB2716B1124C91A7163640100212C1942
:101ED000217604212972812101F04EFCF8BD3046A3
:101EE00000F096F8F8BD0000555342431B02000075
:101EF00010B54322D2001458627A022A07D0C909C9
:101F000004D0012A02D0012100F082F810BD812105
:101F100001F004FC0020607210BD000010B5044602
:101F2000FF30FF3002308269107A022805D0032882
:101F300001D004280ED1002109E00748815C801CF3
:101F40001218204600F030FB002803DA0121204659
:101F500000F05EF810BD00001902000010B5044644
:101F6000FF30FF3002308269107A00280FD001283C
:101F70000CD10948815C801C1218204600F014FB2B
:101F8000002803DA0121204600F042F810BD204667
:101F9000FFF74AFF10BD000019020000FF30FF30BC
:101FA0000230806900210172704770B5C11DFF3198
:101FB000FA318D6904460020092228729201687264
:101FC000AA1850771077C869016800208847012156
:101FD000204601F087FA8121204601F083FA832010
:101FE00080002A181F230121204601F007FB70BD45
:101FF00010B54321C900095800220A7201224A7211
:10200000832292008A181F23012101F0F7FA10BDE4
:1020100070B50546FF30FF30023084698B200D4AD1
:10202000800002511120400120180176002020720A
:102030008B20800022180D238121284601F09CFB73
:102040008320800022181F230121284601F0D6FAA0
:1020500070BD00005553425310B504490448FEF7C3
:10206000F6F80249491E087010BD0000410000202A
:102070002C000020F0B51D4887B0426901214904B9
:102080000A43426142690A400592426949000A4393
:102090004261406909270840FF060590002280211F
:1020A0003846FEF7C9F9FF260936002231461048A6
:1020B000FEF7C2F9802000240125009002946946B1
:1020C000019503943846FEF70BF9019469460848D8
:1020D00000950294FEF704F90294694604480096BC
:1020E00001950394FEF7FCF807B0F0BD0010024024
:1020F0000004004810B511480F490160FF21053167
:10210000416000210722816012020161C260012248
:10211000416192048261016210224162C261816266
:102120000722C262016308214163FFF71BFB0028FD
:1021300000D0FEE710BD0000003800407C0A0020FF
:1021400010B50C480A490160E121090341600021F2
:102150008160C16001618161C1610C2201624261E3
:102160004162FFF7DFFD002800D0FEE710BD000050
:10217000004400405801002010B5002207490848DB
:1021800001F0DCF80749064801F0F4FB0649044871
:1021900001F06CFB024801F03FFC10BD480000203C
:1021A000C8010020B40000207C000020704700001F
:1021B0008307FF22DB0E9A408907090E9940002809
:1021C0000BDA0007000F0838830808489B0018182E
:1021D000C36993430B43C3617047830804489B0062
:1021E0001B181868904308431860704700ED00E022
:1021F00000E400E0F0B585B0044600206946888020
:102200002646203678E19A8917073F0F26D0B90075
:102210000291425A9A80998809047DD5BE490A40A4
:102220000299425238461C2148430519FF350935A9
:10223000A87A0028206870D029788A00825A52042F
:102240006CD55022125ACB00B44912185918515A61
:102250008905890D00917DD0EA88BDE09A89D20672
:1022600027D40188AE4A25461140018020685021BC
:10227000095A283508182978CA00A8495118405A1F
:102280008005800D2064A16B0818A0630021204602
:10229000FEF755F930790028B4D068690028B1D12B
:1022A00030798021084321684031888100203071D5
:1022B00022E12546FF35028809359A809B881B0557
:1022C00019D5098A09182878C2009448001D1018E9
:1022D000085A294683059B0DAB61AA88E431206822
:1022E00000F024F920688C4A0188114001802046C2
:1022F000FEF71EFE00E1694689880904D8D58649A3
:10230000864F0A40028020685021095A3F1D091853
:102310002878C000C01902E085E03DE04FE0085A8F
:1023200083059B0DAB6108D0AA882969206800F05D
:10233000FDF8A96928694018286100212046FEF7A8
:102340000AF9206801464030008A4018C119E8683F
:102350003E2800E044E00AD9C202120CC00601D1B6
:10236000521E92B290020122D203104306E0C20331
:10237000120CC00701D0521C92B290020880216852
:10238000684A088810400122120350405200504011
:10239000654A10430880AFE05021095A0A1829788D
:1023A000CB005E49091D5918515A8905890D0091C4
:1023B00021D0AA882969009B00F0B8F81BE05022C0
:1023C000CB00125A55491218091D5918515A89053E
:1023D000890D009104D02A892969009B00F0A6F894
:1023E000297820688A004E4B815A803319404E4B21
:1023F000403319438152A96900980818A8612969D6
:1024000000980A182A616B69002B03D0E9680098CC
:10241000814204D929782046FEF79DF803E0297807
:102420002046FEF713FB68468088000664D51C2012
:102430004743206802993A4A415A3D191140029A8D
:1024400028358152A87A0028206811D029788A007E
:10245000825C52061ED55022125AC90012182F480B
:102460000818105A83059B0DAB6124D0EA881EE042
:102470005021095A09182878C20028481018085A0B
:1024800083059B0DAB6121D0AA882969206800F0E3
:1024900062F81BE05022125AC90012181F48001D92
:1024A0000818105A83059B0DAB6104D02A8929694D
:1024B000206800F050F8287822688000184B115AE4
:1024C00080331940174BF1331943115220685021C2
:1024D000095A09182878C20010481018085A8005AF
:1024E000800DA86129690A182A616B692978002B77
:1024F00020460DD0FEF774FB2068014640318A88E3
:102500006B469A81120400D57DE6002005B0F0BD2F
:10251000FEF715F8F0E700008F0F0000020400003E
:102520000F8F00008FBF000080800000101810B5D2
:10253000012292025C088018002C07D002880A70E1
:10254000120A4A70801C891C641EF7D1DA0701D078
:102550000078087010BD101801225B1C920210B5A3
:102560005B088018002B08D04A780C7812022243AE
:102570000280801C891C5B1EF6D110BD704710B50F
:102580004324E4002458D218FF34FF340234236E6D
:102590009A4206D92123052200F041FA0020C043C7
:1025A00010BD002010BD0000F8B5C31D1678002432
:1025B000FF33651EFA33232E7DD00EDC1A2E5ED03B
:1025C00006DC002E17D0032E36D0122E11D136E0A5
:1025D0001B2E51D01E2E0CD14EE02A2E74D004DCBE
:1025E000252E6BD0282E04D16BE02F2E70D05A2EC2
:1025F00051D0202371E000919F690646F81DFF30FD
:10260000FA304169002904D0417E2023052230465A
:1026100064E0D869816800988847002809D03A2387
:1026200002223046009900F0FAF905203872284657
:10263000F8BD20467C81F8BD00F0BFF9F8BD5078A8
:102640009D69C00703D007202C4968810CE0D86938
:102650002423C0695943411808791279401D8242E8
:1026600000D81046688104E0401E80B20A5C2B1836
:102670001A730028F8D119E09869448116E0996925
:1026800008201F4A4881401E80B20D18135C2B732E
:102690000028F8D10AE0996908201A4A4881401EAA
:1026A00080B20D18135C2B730028F8D12046F8BDBA
:1026B00001E009E002E000F049F9F8E700F010F964
:1026C000F5E700F0BDF8F2E700F0C9F9EFE7FFE742
:1026D00052789E69920704D52423052200F09FF9C1
:1026E000A5E7F21DFF32FA32936E526E9BB2FFF7EE
:1026F00046FF00289BDB20467481D8E7245D000854
:102700002B5D0008335D0008F3B583B00398C71D47
:10271000FF37FA37BE690120F41DFF34FA34A56E85
:102720004002854200D30546092080013018C08B45
:10273000009001462846FDF7DBFC80B20190606EF8
:102740000099FDF7D5FC0246F869314607690C315E
:10275000019B00910498B847002809DA112304224C
:102760000499039800F05BF90020C04305B0F0BD68
:10277000ABB28121009A039800F0FEFF606E401911
:102780006066A06E401BA066616B491B61630028F8
:1027900001D1032030720020E8E7F3B583B003983D
:1027A0000125FF30FF300230029087696D02FC1D69
:1027B000FF34FA34A66EAE4200D32E4609208001C3
:1027C0003818C08B009001463046FDF791FC80B26E
:1027D0000190606E0099FDF78BFC02460298394625
:1027E000C0690C314069019B84460091674604989A
:1027F000B847002809DA032304220499039800F05B
:102800000EF90020C04305B0F0BD606E801960660F
:10281000A06E801BA066616B891B616300280AD0D3
:10282000A84200D20546ABB20121009A039800F0FD
:10283000E5FE0020E7E700210398FFF7E9FBF8E752
:10284000F7B50746FF30FF30023085691646297A12
:1028500000293DD1EC1DFF34FA34217EC90933D063
:10286000C069816801988847002806D03A230199F9
:102870000222384600F0D3F814E0B01CFDF75FFCEC
:1028800000BA020A7079120202436266307AF17964
:102890000002084343BAA36638460199FFF76FFE6A
:1028A000002802DA0020C043FEBD02200921287260
:1028B00089016918C98B606E48436066A06E484301
:1028C000A0666169814203D02023617E0522D0E7A2
:1028D00001204002688138460199FFF715FFFEBDCF
:1028E000F8B5C51DFF350646FA35E869AC69436899
:1028F00015480F462218801C211838469847002892
:1029000008D03A2302223946304600F088F80020E9
:10291000C043F8BD132040010059401E010E217331
:10292000010C6173010AA173E073002020746074CC
:10293000092080012018C08B010AA174E0740820CE
:1029400060810020F8BD00005E020000FEB50F4669
:10295000C11DFF31FA31054600208C690646221858
:10296000401C80B216730C28F9D3C8696A464368C4
:1029700001A938469847002808D03A230222394650
:10298000284600F04CF80020C043FEBD0820E0734C
:102990000198401E010E2174010C6174010AA1749A
:1029A000E07402202075667568460088010AA175EA
:1029B000E0750C2060810020FEBDF0B5FF30FF30D7
:1029C0000230806900210D464318491CC9B21D73AD
:1029D0001229F9D3702101730C21C17409218901D5
:1029E00043181C7F5E7FB44211D0E60036181127D1
:1029F0007F01F7193F7F877371184E780676097843
:102A00004176641CE1B21977042900D11D771221A7
:102A100041811179122900D841810020F0BD30B5E3
:102A2000FF30FF3002308169092080010818447F9F
:102A30001125E40064186D01641922771A02437F9E
:102A4000DB005918FF31FF3102310A64417F491C14
:102A5000C9B24177042901D10021417730BDF7B5D2
:102A6000009F1646FF37FF370237BD69287A0028D6
:102A700004D001990098FFF790FEFEBDEC1DFF34D5
:102A8000FA34207EC0093AD1F869816801988847F4
:102A9000002805D03A230AE00098FFF7C0FF1EE0A7
:102AA000F869C16801988847002803D027230222CB
:102AB0000199F1E7B01CFDF742FB00BA020A7079F8
:102AC000120202436266307AF1790002084343BA87
:102AD000A36601990098FFF752FD002802DA002052
:102AE000C043FEBD092189016918C98B606E484346
:102AF0006066A06E4843A0666169814203D02023CE
:102B0000617E0522C8E7012129724902884200D36B
:102B1000084683B22A460C320121009800F06EFD6F
:102B20000020FEBD10B50248FEF7B2FD10BD00004A
:102B30007C0A002010B5406A002146221152C1874C
:102B4000FEF79EFD10BDF8B50F460B4615460092E8
:102B5000032104460022C90200F01BF820260028A9
:102B600012D13B46002280212046009500F05CF8FF
:102B7000002809D103213B46002249022046009546
:102B800000F007F8002803D0206E304320660320B1
:102B9000F8BDF8B51D4617460E4604463DE0032134
:102BA00049028E4205D1002F03D1017B6846017096
:102BB0000078681C31D0002D05D0FDF743FC069944
:102BC000401AA84229D320684168E022914341601D
:102BD0006068C11FFD390CD10121A068C90388427A
:102BE00002D04911884204D12068016840229143F3
:102BF00001600120A16A4003814207D121680A686F
:102C000082430A6021680A6802430A600120403456
:102C10006077002020770320F8BD2068816831406C
:102C2000B942BCD10020F8BDF8B51D4617460E4686
:102C3000044633E0681C31D0002D05D0FDF702FCBE
:102C40000699401AA84229D320684168E02291439E
:102C500041606068C11FFD390CD10121A068C90322
:102C6000884202D04911884204D12068016840227C
:102C7000914301600120A16A4003814207D121688C
:102C80000A6882430A6021680A6802430A600120D8
:102C900040346077002020770320F8BD20688168E9
:102CA0003046884304D00020B842C3D10020F8BD8C
:102CB0000120F9E7012000040860C0111080002005
:102CC00070470020704700207047002070470020A8
:102CD00070470020704700207047704710B5FDF71F
:102CE000B7FBFFF71BF810BD10B598B0202000907F
:102CF00001200024089009946846FEF7D5FA0028C0
:102D000000D0FEE7072014900320159016940121AF
:102D1000179414A8FEF7C4F9002800D0FEE70E4867
:102D20000D90109413940DA8FEF72AF9002800D0F6
:102D3000FEE7FEF75FFA7D21C900FDF7D9F9FEF73E
:102D4000D5FF0420FEF774FF00221146501EFDF748
:102D5000D5FB18B010BD0000020002001248016847
:102D60000122114301604168104A1140416001682D
:102D70000F4A1140016001680122920491430160F1
:102D800041683F22120491434160C16A0909090167
:102D9000C162016B074A11400163416B4908490058
:102DA0004163002181607047001002400CB8FF08A9
:102DB000FFFFF6FE2CFEFCFF10B5818CC90707D083
:102DC00001684A6801235B049A43836A1A434A6094
:102DD000818C890707D501684A6801231B049A433F
:102DE000C36A1A434A60818C490707D501684A685B
:102DF00001239B049A43036B1A434A60818C0907A1
:102E000007D501684A680123DB039A43436B1A43E1
:102E10004A60818CC90607D50268916801231B03AB
:102E20009943836B19439160818C890607D50168AA
:102E30008A6801235B039A43C36B1A438A60818CBF
:102E4000490612D503685A6801210905046C8A43B2
:102E500022435A60026C8A4207D1026851680323F8
:102E60005B059943436C19435160818C090607D572
:102E700001684A680123DB04806C9A4302434A607C
:102E800010BD0000F8B500260446C666FDF7DAFA64
:102E9000054616492068884202D0154988421DD14E
:102EA0000068144F000709D501212B46002249056F
:102EB0002046009700F0CEF800280DD12068006869
:102EC00040070BD501212B4600228905204600979B
:102ED00000F0C0F8002801D00320F8BD20206034A5
:102EE0006072A07226720020F8BD00000038014018
:102EF00000440040FFFFFF01F8B504462369A268C3
:102F0000E5691A43636910202B43002125681A43A1
:102F10002B680E46474F3B4013432B6023685A688B
:102F200003252D03AA43E5682A435A60236AA26950
:102F300025681A43AB680B273F02BB431343AB60C2
:102F40003D4F25683D4B0203BD420AD11B6B9B07D9
:102F50009B0F20D0012B14D0022B14D0032B1BD19C
:102F60000DE0374FBD4210D11B6B03273F043B40A0
:102F700011D09B1A05D09B1A05D093420CD1022088
:102F80000AE0042008E0082006E02E4B9D4202D013
:102F90002D4B9D4200D100200123E769DB039F42B6
:102FA00022D100280CD002280DD0042813D00828E4
:102FB00017D001260A0912010807400F10432EE01E
:102FC000FEF71EF909E06168204A48088018FDF7FD
:102FD0008FF881B2EEE7FEF723F9616840004A08F6
:102FE000F4E761684808F1E7002808D0022809D012
:102FF00004280CD0082815D001263046F8BDFEF76D
:10300000FFF806E06168124A480880180DE0FEF7F4
:1030100007F961684A088018FDF76AF880B22168EC
:10302000C860EAE761684808C018FDF761F880B237
:10303000E860E2E7F369FFEF00380140001002406A
:103040000044004000480040004C00400024F400D0
:1030500000127A00FFB581B017460E4604460A9D5D
:103060001DE0681C1BD0002D05D0FDF7EBF904997D
:10307000401AA84213D920680168FF22A132914367
:10308000016020688168490849008160202060341F
:103090006072A07200202072032005B0F0BD20688D
:1030A000C1693046884304D00020B842D9D00020FE
:1030B000F3E70120F9E710B5852292001258526813
:1030C0009047002010BD134610B50A46002100F0BD
:1030D00095FA002010BD134610B50A46002100F0F5
:1030E0004BFB002010BD10B50446802100F016FBFC
:1030F0000021204600F012FB10BD10B5FF21052273
:10310000F5310A5000231A46194600F077FA0020DC
:1031100010BD10B5FF230224F5331C508261134605
:10312000C2610A46002100F027FB002010BD10B547
:10313000FF210422F5310A5000231A46194600F0F7
:103140001BFB002010BD000010B50A46024903A079
:1031500000F0D2F8004810BD7C0800204D534320F9
:10316000436F6E6669670000122008800048704750
:103170006800002010B50A46024903A000F0BCF820
:10318000004810BD7C0800204D534320496E7465F3
:103190007266616365000000042008800048704783
:1031A0006400002010B50A46024903A000F0A4F80C
:1031B000004810BD7C08002053544D6963726F6550
:1031C0006C656374726F6E696373000010B50A46B4
:1031D000024903A000F090F8004810BD7C080020D0
:1031E00053544D3332204D6173732053746F7261A9
:1031F0006765000010B50A46024903A000F07CF89C
:10320000004810BD7C080020303030303030303085
:103210003030314100000000F8B50D4604464988C1
:10322000FF300A0AFF300230130000F095FD084914
:1032300005091649493E46490069237C02682AE08F
:10324000217C02264069002905D0C16A684688476A
:103250000146467040E0816AF8E7C9B20B0000F011
:103260007BFD0604080F13171E2F0069227C43689C
:1032700002E00069227C836869461046984712E0A4
:103280000069227CC368F7E70069227C0369F3E7E1
:103290000069237C426969461846904703E000694B
:1032A000227C8369E8E7014616E0217C002907D1EA
:1032B0004069416B68468847F5E7217C002904D0C6
:1032C00029462046FFF70FFFF8BD4069016B6846AD
:1032D0008847072201464270684600880028F3D0DC
:1032E000EA88002AF0D0824200D90246684602806D
:1032F0002046FFF70EFFF8BD70B5002300281CD054
:103300000446002502E06D1CEDB2641C2678002EF8
:10331000F9D16C00A41C1480CC5403225B1CCA5449
:1033200000245B1C06E0CA545B1CDAB28C54521CAD
:10333000D3B2401C0278002AF5D170BD10B5002828
:1033400013D0C31DFF33FA335C69002C01D0002475
:103350005C61002900D01961FF210123FD310B546C
:10336000027000F0DBF8002010BD022010BD10B587
:10337000FF30FF3002300024006AFDF7AFF900286B
:1033800006D0012801D0022801D0022400E0012447
:10339000204610BD10B5FF30FF3002300024006A17
:1033A000FDF7E8F8002806D0012801D0022801D056
:1033B000022400E00124204610BDFEB50446FF3083
:1033C000E51DE130FF35FA3513460190002908D09C
:1033D00068694269002A49D00198007F032843D0D8
:1033E00044E02646FF3681362046716F14300229AC
:1033F00034D1C26881680092914207D9891A8160EC
:103400008AB219462046FFF766FE13E0406811466F
:103410000746FCF76DFE002913D10098874210D3B0
:10342000B06F87420DD2002211462046FFF753FEAF
:103430000020B06700231A461946204600F0DEF847
:103440000CE06869C168002905D00198007F032855
:1034500001D1204688472046FFF74FFE28780128F3
:1034600004D10020287001E0204690470020FEBDD6
:1034700070B50546FF35E1352B4620331646044628
:10348000002907D058698269002A29D0287F03289B
:1034900024D025E0FF21F531E01D0959FD30032935
:1034A0001ED18268C1688A420BD9511A8160C068F6
:1034B000814200D301468AB231462046FFF703FE1F
:1034C0000EE058690169002904D0287F032801D142
:1034D000204688472046FFF72AFE01E02046904715
:1034E000002070BD10B5FF30FF3002300024006AAC
:1034F000FDF74EF9002806D0012801D0022801D09E
:10350000022400E00124204610BDFF3010B5FF303A
:103510000230006AFDF73EF910BD000010B51B49EE
:10352000C41DC861FF341A49FA341A482162086080
:10353000022208208A6048600020C8608861C86153
:103540000A6108620846FDF749FC002804D0FF2103
:10355000353111A000F0EEFB002218231146206A3D
:10356000FCF7D0FF582300228021206AFCF7CAFF15
:10357000982300228121206AFCF7C4FFD82300226F
:103580000121206AFCF7BEFF002010BD5C0800206E
:103590005C060020005C00402E2E2F5372632F75B6
:1035A0007362645F636F6E662E630000FF30CA094A
:1035B000FF3049060230490E1C23006A594308189F
:1035C000002A01D0203001E0FF300130807A7047BE
:1035D00070B5FF301D46FF30023013460024006AEC
:1035E0002A46FDF7E1F8002806D0012801D002287C
:1035F00001D0022400E00124204670BD10B5FF3048
:10360000FF3002300024006AFDF720FA002806D0BF
:10361000012801D0022801D0022400E00124204624
:1036200010BD70B50022044640231146FFF7D0FFBD
:103630004025FF20113005512B46002280212046D5
:10364000FFF7C6FFFF200121FD3025620155E01D77
:10365000FF30FA308169002904D04069217942683D
:1036600020469047002070BDFF30E130417F017758
:103670000020704710B5FF21FD31095C032906D1F8
:10368000852189000958C969002900D08847002090
:1036900010BD01740020704710B5FF30FF300230BC
:1036A0000024006AFDF72EFC002806D0012801D076
:1036B000022801D0022400E00124204610BD70B58C
:1036C00004464120C0002018054600F03FF921467D
:1036D000FF3181310122084680304A67C2898A67FA
:1036E000007AC106C90E0AD001290DD0022910D0D6
:1036F000C109C901204600F011F8002070BD29461B
:10370000204600F08EF9F8E72946204600F075FAC9
:10371000F3E72946204600F0FBF9EEE710B5FF304D
:10372000FF3002300024006AFDF710FA002806D0AE
:10373000012801D0022801D0022400E00124204603
:1037400010BD10B5FF30FF3002300024006AFDF7D5
:10375000FAFB002806D0012801D0022801D002245B
:1037600000E00124204610BDFF30E130017F4177A9
:10377000042101770020704710B5FF30FF30023080
:103780000024006AFDF72CFA002806D0012801D099
:10379000022801D0022400E00124204610BD10B50B
:1037A000FEF7BCFB002010BD10B5FEF7D7FB0020D4
:1037B00010BD10B504460121FFF7ECFD8121204624
:1037C000FFF7E8FD2046FEF7E9FBFF34FF34023443
:1037D000A069002803D000F02DFA0020A06100208D
:1037E00010BD00000A210180004870474C010020F4
:1037F00020210180004870470C0100202021018019
:1038000000487047EC0000202021018000487047EC
:103810002C01002070B50546007C0024002819D03A
:103820004023022201212846FFF7D2FE4023022234
:1038300081212846FFF7CCFE9B20800000F0FCF998
:103840004321C900485100280ED02846FEF7ADFBA1
:10385000204670BD01267602334602220121284609
:10386000FFF7B6FE3346E2E70124F1E7002903D073
:10387000FF30FF300230C1610020704770B50C4648
:10388000C11D0546FF31FA31207860228E69024061
:1038900028D0202A56D16278FE2A02D0FF2A17D1DA
:1038A0000EE06288002A13D1E288012A10D1C009F3
:1038B0000ED0C869806980470122314630601BE024
:1038C0006188002904D1E188002901D1C00905D00F
:1038D00021462846FFF707FC022070BD2846FEF768
:1038E00087FB2FE0607801280DD00A2802D00B2832
:1038F00028D105E00122311D2846FFF70AFC21E00E
:10390000A07870601EE021792846FFF7EBFD217951
:103910002846FFF73FFD20790B4B0006287C05D594
:10392000002800D040230222812104E0002800D09A
:103930004023022201212846FFF74AFE217928462A
:10394000FEF7D6FA002070BD000200000A7802706F
:103950004A784270CB788A781B02D21842804B7921
:103960000A791B02D21882808A79C9790902511812
:10397000C180704702460020002904D0FF32FF3288
:103980000232516170470220704710B585229200C3
:1039900012580224002A04D012689047002800D14F
:1039A0000024204610BD000070B50E468978194DE0
:1039B00004462970012904D931462046FFF793FBBC
:1039C00070BD2046FF30E130027F022A15D0032A65
:1039D000F2D1002917D0606888420AD0C1B22046CF
:1039E000FFF769FB297861602046FFF7CEFF0228C8
:1039F000E2D02046FFF79BFB70BD0029F9D00322DF
:103A000061600277F0E70222027720466160FFF7EB
:103A100052FBEEE7B000002010B5FFF792FE002049
:103A200010BDF8B500220092C61DFF364C7817462F
:103A3000FA3632460125203A230000F08DF90A3C7F
:103A4000564150410906412B2841FFF7E5FB5DE057
:103A500004468888002818D1C888002815D188789D
:103A600017464606107F760E03280ED0BE773146E5
:103A70002046FFF711FE2046FFF759FB002E02D02B
:103A80000220387742E03D7740E0204618E0FFF71B
:103A90008BFF3BE0CB88012B12D1127F022A02D090
:103AA000032A0DD104E0012201460831876013E0AA
:103AB0000122011D10E0127F022A04D0032A02D045
:103AC000FFF711FB22E0C5607168002901D00321D6
:103AD000C160014602220C31FFF71BFB16E00446D1
:103AE0004888012812D1756009E00446107F022839
:103AF00001D00328C9D14888012807D177607069AF
:103B00008268204690472046FFF711FB0098F8BDD9
:103B1000F8B504460D462878E61D4006FF36002716
:103B20000979800FFA36012809D06A7830462038A2
:103B3000002A38D0012A1ED0032A3DD106E0706940
:103B400029468268204690470020F8BD007F022861
:103B500017D003282CD16888002806D1002904D06A
:103B6000802902D02046FFF7D9FD70692946826876
:103B70002046904713E0007F022802D0032817D187
:103B800004E0002918D080291AD115E0688800289F
:103B900012D1480603D02046FFF7E9FBE5E72046AF
:103BA000FFF7C5FA08E0007F022807D003280BD0F2
:103BB00029462046FFF797FA3846F8BD4806FBD05D
:103BC0002046FFF7ABFDF7E7C80904D04806400DD3
:103BD0000519143504E04806400D0519FF35053573
:103BE0002046FFF7E3FC002800D0012028600222D5
:103BF00029462046FFF78DFADEE770B50446FF3010
:103C0000E130007F0D4603280FD1287901280CD818
:103C1000852080000059826820469047E888002867
:103C200006D12046FFF783FA02E02046FFF75BFA51
:103C3000002070BD7047000000487047EC03002072
:103C400010B50248FDF744F810BD00005C060020E6
:103C50000348017849084900017000787047000066
:103C600028000020012904D0022905D0032906D10B
:103C700007E00120C00201E00120000310600020E5
:103C800070470120FAE7100310B50A46194601F003
:103C9000E1FE002010BD00000148007870470000E0
:103CA00028000020FFB581B01E46154601240CE017
:103CB000294616A000F040F8012001F0A3FF284695
:103CC00000F06AFD01F08EFF641CB442F0D92803B5
:103CD00000253601009013E0012001F093FF0098C9
:103CE0002F023C1821460EA000F026F80298FF2172
:103CF0003A182046013101F0DDFD01F073FF6D1C23
:103D0000AE42E9D8002005B0F0BD000045726173F5
:103D1000696E6720736563746F7220256C640A0096
:103D200070726F672070616765206174202530387C
:103D3000780A0000FEE700000FB410B503A9044B99
:103D4000044A029800F024F810BC08BC04B01847DC
:103D5000595200089C00002030B47446641E257837
:103D6000641CAB4200D21D46635D5B00E31830BCAF
:103D7000184702E008C8121F08C1002AFAD170478C
:103D80007047002001E001C1121F002AFBD17047DB
:103D9000FFB591B00F460546002606E025280AD05B
:103DA000149A139990476D1C761C28780028F5D139
:103DB000304615B0F0BD002400940121F34A02946E
:103DC00000E004436D1C2B780846203B98401042CD
:103DD000F7D128782A280ED0022128780246303AD6
:103DE000092A15D8009A0A235A43303A80180C43FE
:103DF0006D1C0090F1E701CF0090002805DA01204A
:103E000040030443009840420090022004436D1C8C
:103E100028782E2815D10420044368786D1C2A28A0
:103E20000AD101CF6D1C02900BE002990A22514386
:103E3000303940186D1C0290287801463039092924
:103E4000F3D928786C2810D006DC4C281AD06828C2
:103E50000ED06A2817D104E0742813D07A2812D122
:103E600010E00120400504430CE00121090501E0B8
:103E7000032109050C436978814203D10120000523
:103E800024186D1C6D1C287803906E281ED00CDC45
:103E9000632831D004DC00288AD0582811D1B2E040
:103EA00064287BD069280CD178E073282DD004DCFD
:103EB0006F2870D0702804D1A7E075286CD07828BE
:103EC0006BD0149A13999047761C62E06002400F01
:103ED000022807D003280AD0042838680AD00660D0
:103EE0003F1D56E03868F11706604160F8E7386812
:103EF0000680F5E70670F3E7387869460874002015
:103F0000487404A80390012003E03868039000205F
:103F1000C0433F1D61070FD5002101E00199491CF5
:103F2000029A0191914213DA8142F7DB019A0399D7
:103F3000895C0029F2D10BE0002101E00199491CC4
:103F400001918142FADB019A0399895C0029F5D13C
:103F500001990098139A401A00902146149B00F092
:103F60003BF901998019461807E0039803990078F6
:103F7000491C0391149A139990470198401E01908F
:103F8000401CF2D12146149B139A009800F014F9BA
:103F900086196D1C09E741E033E034E00A20002176
:103FA000049005916002410F022905D001CFC2178C
:103FB0009446032905D007E0FF1DFF08FF0003CF4B
:103FC00006E000B2C2179446042902D140B2C117DC
:103FD0008C4600226146944506DA0A46002140429A
:103FE00091418C462D2102E0210504D52B216A4602
:103FF0001176012103E0E10701D02021F7E70191CB
:1040000054E00A200BE0102009E010200490002169
:104010000420044308200591029003E008200021B9
:10402000059104906002410F022905D001CF0022C2
:104030009446032906D006E0FF1DFF08FF0003CFCA
:104040008C4603E080B2042900D1C0B20021019166
:1040500021072BD50399702906D0049A1021059BBE
:104060004A401A4305D00EE040216A4611760121EC
:1040700008E06146014306D030216A461176039973
:10408000517602210191049A0821059B4A401A4366
:104090000CD16146014301D1610707D530216A4641
:1040A0001176012101910299491E02910399582923
:1040B00004D037A103910FA90F910DE039A1F9E7C1
:1040C0006146059B049AFCF744F8039B8C469B5C75
:1040D0000F9A521E0F92137061460143F0D10F9850
:1040E00007A9081A20300390600704D501200004B6
:1040F0008443029801E0012002900399884201DD87
:10410000401A00E000204118029001980918009818
:10411000401A0090E00306D42146149B139A00989D
:1041200000F05AF886190020049008E006A9085CFF
:10413000149A139990470498401C761C0490019996
:104140008842F3DBE0030CD52146149B139A0098B8
:1041500000F042F8861904E0149A30201399904731
:10416000761C0299481E02900029F5DC08E00F98A1
:104170000F990078491C0F91149A13999047761C57
:104180000399481E03900029F1DCFBE60928010091
:1041900030313233343536373839616263646566BD
:1041A000000000003031323334353637383941427F
:1041B0004344454600000000F8B5044600251E466D
:1041C0001746880404D405E039462020B0476D1C0A
:1041D000641EF9D52846F8BDFFB50446002581B018
:1041E0001E46C80301D5302700E02027880404D5E7
:1041F00005E038460399B0476D1C641EF9D5284682
:1042000005B0F0BD70B5044601200003002220185F
:104210000271521EC262204601F02FFB002801D01D
:10422000032070BDFF20FF30005B1049884201D0A1
:10423000022070BD20463730FBF781FF3621095D33
:10424000000208430A4D0002A8420AD0204653301B
:10425000FBF775FF4034A17C000208430002A8422E
:1042600001D1002070BD012070BD000055AA0000E2
:1042700000464154F0B50022164B14460C25554318
:104280005E59002E0CD00768BE420AD1ED186E6848
:104290008768BE4205D12D89C688B54204D000E0AA
:1042A0000124521C022AE9D3022A02D000290FD18C
:1042B00005E0002C0AD1022908D01220F0BD0C2004
:1042C0004243D0184089C11FF93901D00020F0BD08
:1042D0001020F0BDE00A002030B50021054B0C464F
:1042E0000C224A439D58854200D19C50491C02290A
:1042F000F6D330BDE00A0020012212038018426983
:10430000891E921E8A4201D8002070478278806AF6
:104310004A43101870470000F3B581B00F460121E1
:10432000019809034518002F06D0394600F0A0FF78
:10433000022809D20120FEBDEE68002E02D0686975
:10434000B04207D8012605E0411CF4D069698142DA
:10435000F1D83E4634466869641CA04202D8022463
:10436000022E0BD32146019800F082FF002807D0CF
:10437000411CE0D00128DED0B442ECD10020FEBDCB
:10438000114A2146019801F0BFFA002808D1002FF8
:104390000BD022463946019801F0B6FA002804D025
:1043A00001280DD001242046FEBDEC602869411C87
:1043B000F9D0401E28616879012108436871F2E74D
:1043C0000024E443EFE70000FFFFFF0FF3B581B0E7
:1043D00002990C6800E0641C21782F29FBD05C292D
:1043E000F9D085690B222021284601F03FFA0020F0
:1043F000014608228E469446225C401C202A3BD966
:104400002F2A39D05C2A37D02E2A01D0E6450BD38B
:104410006346082B3FD12E2A3DD1082296460B2217
:1044200089069446090EE7E7802A05D3032319433A
:10443000254B9A18803A127824A3164600E05B1C9C
:104440001F78002F02D0B742F9D124E01346413B38
:10445000192B02D80223194308E01346613B192B9C
:1044600004D8012319433246203AD2B27346EA54A3
:104470007246521C9646BFE723180298202A036012
:1044800001D8042000E000207246002A03D02A78D8
:10449000E52A02D003E00620FEBD05222A7062460E
:1044A000082A01D18906090E8A07920F012A01D133
:1044B000102210430907890F012901D1082108435F
:1044C000E8720020FEBD0000785C0008222A2B2C38
:1044D0003A3B3C3D3E3F5B5D7C7F00000B484178B2
:1044E000491CC9B24170052901D900214170C8B2E7
:1044F000410042180549163108468B5C1438037098
:1045000051184A7842708978817070470000002005
:10451000F3B5C6880446761C300481B0000C35D053
:104520002069002832D0710669D1401C2061012722
:10453000E1683F03002924D02068F209C3199B7861
:104540005B1E1A425BD100F093FE0546012821D97B
:10455000681C38D02068C1194969A94249D8029914
:10456000002913D0E168FFF7D7FE050010D0012D18
:1045700010D0681C27D0206801F00AFB002822D147
:104580000AE02068C0190089B04238D80420FEBD76
:104590000720FEBD0220FEBD01273F033A46002151
:1045A000206801F063F929462068FFF7A5FE21681D
:1045B000C9190027C86210E001220A71206801F0C1
:1045C000E7FA002801D00120FEBD01202168000388
:1045D0000818C16A491C7F1CC162012021680003C0
:1045E00009188A78BA42E7D822681018C06AC01B36
:1045F000C862E56029462068FFF77EFE2061E680FC
:1046000071062068090D401860610020FEBD70B57C
:104610000446002100F031F80FE02169206801F024
:104620002CF900280BD160690078E5280AD0002811
:1046300008D001212046FFF76BFF0028EDD00428A9
:1046400007D007E02169206801F017F9050003D0C1
:1046500011E0072005460EE020220021606901F0EC
:1046600005F90B22A169606901F0F8F801202168C1
:10467000020389180871284670BDF8B5C1808368A7
:104680000D460446012B38D00126206836038019D8
:104690004169994231D9002B05D10178032905D10F
:1046A000436A002B02D08078C70111E00189A9423A
:1046B00023D9406A12E000F0DBFD0346401C1AD00B
:1046C000022B1AD3206880194069984215D9ED1B36
:1046D0002068BD421946EED2FFF70EFEE3600028C7
:1046E0000BD0E9090818206169062068090D4018F7
:1046F00060610020F8BD0120F8BD0220F8BD000077
:1047000010B5094900220B5C002B0AD101220A5482
:104710000A18800040184068127A016810468847DD
:104720000246104610BD0000F80A002030B4054CC7
:1047300023188000001940681B7A04691846A446B3
:1047400030BC6047F80A002030B4054D04462819F3
:10475000A40064196468007AA468A44630BC604769
:10476000F80A0020044A1118800080184068097A6D
:104770004268084610470000F80A002030B4054D92
:1047800004462819A40064196468007AE468A44601
:1047900030BC6047F80A002038B50EA109680091C6
:1047A00001030A0C69464A70020A8A700A4CC870F2
:1047B000606901252D03A84360610A23042207488C
:1047C000FDF75AF8616929436161002800D0012092
:1047D00038BD000020000000000400487C0A0020D2
:1047E000F7B590B011981546012802D9132013B0DF
:1047F000F0BD10A800F0A4FD002801DA0B20F6E7B8
:10480000FE4A81005158069100290CD0012424034E
:10481000002209190A70C0B20390FFF771FFC107A7
:1048200003D00320E3E70C20E1E7400701D50A208D
:10483000DDE702AA01210398FFF778FF00287DD168
:10484000029980297AD31198002801D0002000E035
:104850003F200190081A02900090681E054201D185
:10486000002D0FD1FA210098FBF742FC0021E44A09
:1048700000E0491C4B00D35A8342FAD84800E04973
:1048800016310D5A01200003854200D32D0B002D57
:1048900010D0802D00D9802529460098FBF728FCF0
:1048A000D8490127884200D30227D749884203D339
:1048B000032724E00125EFE7032F20D0012F27D085
:1048C0004000001DCF49012609314018000B079018
:1048D00004200D90019880190C90079940180D99AB
:1048E000441801986119091A009881424AD804AA0B
:1048F00003210398FFF71AFF002816D10EE0C149E3
:10490000800011314018000B202607900020E0E7BE
:1049100041004018401C4008C01CD3E70498002800
:1049200003D00121C903884201D901200490014626
:104930006018401E491E8843001B00E0E6E004901A
:10494000032F13D0079908180790029C0798A11B02
:10495000091A0D98081A2946FBF7CAFB0F90022F77
:1049600009D0032F0BD0012F15D01AE00C9936185F
:1049700008180C90E9E7A349884203D311E0A24943
:10498000884201D20E2032E70C20059011980028B1
:104990000FD0F02048E001200004844201D2012021
:1049A000F3E701200004844201D20420EDE7062051
:1049B000EBE7012212030021069800F057FF069C46
:1049C0000120FF34BF346070A0700020E0700598B3
:1049D0002071FE2060710299019840188B49FBF705
:1049E00087FB82083F210A430490A271E071217283
:1049F00000206072A072E07202982073010A617355
:104A0000010CA173000EE07306985521FF30E130D0
:104A10008177AA21C1770123002206990398FFF725
:104A2000ADFE002872D1F820069C059001221203E9
:104A30000021204600F01AFF0B2275A1204600F04D
:104A40000DFF0023E372102020736573A673300AF4
:104A5000E07301202074032F0CD040026074000A20
:104A6000A074012102980904884205D2E074000A6A
:104A700020750AE00020F1E7214620310870020A83
:104A80004A70020C8A70000EC870059860753F204D
:104A9000207600206076FF21A176E07601982077CD
:104AA0000198000A60770198000CA0770198000E29
:104AB000E07700F043FC80260490032F27D02146A6
:104AC0002031C871020A0A72020C4A72000E887202
:104AD0000798A07507981322000AE0750E71292027
:104AE000887120464DA12B3000F0B8FE2646FF36D7
:104AF0005520E136B077AA20F07701232146019AAC
:104B00000398FFF73BFE00288CD12AE0EEE0214617
:104B10004031C870020A0A71020C4A71000E887195
:104B200020462030079A0271079A0023120A427128
:104B3000079A120C8271079A120EC2710222027336
:104B400043738373C3730122027443740622827415
:104B5000C3740E70292088701322204634A1473078
:104B6000C2E7032F06D1019A01232146921D039823
:104B7000FFF704FE0C980122089012030021204642
:104B800000F074FEFF200599C0430491032F0FD05D
:104B9000012F00D12B480843049020700498000A8C
:104BA00060700498000CA0700498000EE07015E08E
:104BB0000143049121700498000A60700498000C6D
:104BC000A0700498000EE070FF2020716071A07149
:104BD000E07120726072A0720F20E072089A0123C7
:104BE000501C089021460398FFF7C8FD00287DD18E
:104BF000012212030021204626E00000AC00002024
:104C0000F85C0008F60F0000F6FF0000C13E00004F
:104C1000EBFE904D53444F53352E30004E4F204EF7
:104C2000414D4520202020464154202020202000B6
:104C30004E4F204E414D45202020204641543332D6
:104C40002020200000FFFF0000F010FE01200BE0FC
:104C5000089A0123501C089021460398FFF78EFD07
:104C600000284ED10498401C0146049007988142C8
:104C7000EED3032F00D00D9D089A0123501C0890FD
:104C800021460398FFF77AFD00283AD16D1EF3D133
:104C9000032F2ED15220207060706120A07041211E
:104CA000E170722232717271B171F0710F9801234B
:104CB000401E3072010A7172010CB172000EF07266
:104CC0000220307300207073B073F0735520B077FA
:104CD000AA20F077019A2146521C0398FFF74EFD57
:104CE000019A01232146D21D039800E009E0FFF755
:104CF00045FD002211460398FFF718FD002800D15A
:104D000075E5012073E50000F7B582B003980090C7
:104D1000684600F015FB002802DA0B2005B0F0BD54
:104D2000104E850074590027002C06D02046FFF74E
:104D3000D3FA01200003201807700298002803D03E
:104D40000121090341180F707051002802D0049806
:104D5000012801D00020E1E7002203A902A800F009
:104D6000D1F8DBE7AC000020F7B590B006000CD01E
:104D7000D7060020FF0E7A083060520011A902A861
:104D800000F0C0F8040003D0B5E0092013B0F0BD76
:104D90000CA8089002A8119900F004FA079D0400DD
:104DA0000CD1002D03D0780803D0012102E00624A5
:104DB00004E0002102A8FFF75DFA0446F806400F60
:104DC0005ED0002C1AD0042C12D100204C4902E0F5
:104DD000401C022804D20C2242438A58002AF7D1F0
:104DE000022804D002A8FFF712FC044600E01224B7
:104DF00008200743079D002C0AD07CE0E87A1121A7
:104E0000084201D0072476E0780701D5082472E033
:104E1000380744D500F092FAA873010AE973010C2F
:104E20002974000E68740020E87228776877A877E4
:104E3000E8772946029800F01BFB0A9000212846DB
:104E400000F09EFE0120029A0103521810710A9888
:104E5000002822D0D06A01900A99029800F04EFEF4
:104E6000040048D10121029A0A9809035118401EF2
:104E7000C8600199029800F000FD04000BD03AE0F0
:104E8000002C38D1E87AC10601D5042433E0B907F3
:104E900001D5C007B6D1380701D52020074301202E
:104EA000029900030818C06A3562F061780801D0E1
:104EB000012100E0002102A800F060FAB0620028A1
:104EC0001BD0B7710027F7712946029800F0D0FA7D
:104ED000306128461D30FBF732F9297F0002084374
:104EE000B760B7617762F060029801210903306012
:104EF0004018C088B080204648E70224FBE7000045
:104F0000E00A0020F0B505468FB000202860174663
:104F1000084600F015FA060002D50B200FB0F0BDD0
:104F20009A48B1004458002C15D0012000032C6091
:104F300025182878002804D06878FFF713FCC107EB
:104F40000BD000202870F0B26870FFF7D9FBC107C2
:104F500009D00320E2E70C20E0E7002F01D0400752
:104F600005D40020DAE7002F03D0400701D50A203E
:104F7000D4E7002631462046FFF744F9012826D120
:104F800030010719FF37BF373879002807D0384676
:104F90000930FBF7D4F80102387A014300E0002120
:104FA000B20009A8761C8150042EE9D30027B9006D
:104FB00009A84658002E06D031462046FFF722F9B0
:104FC000002801D10AE002207F1C042FEFD3032820
:104FD00002D000287CD101E001209FE7E01C069070
:104FE000217BE07A090201430120000381426FD155
:104FF000E08A002807D120462530FBF7A0F82421BD
:10500000095D00020843A8610D90217CE970012927
:1050100001D002295CD141430491677BAF70002F1E
:1050200056D0781E074253D1A17C627C08021043FF
:105030002881089040064BD10698417C027C0802EA
:10504000104307D120462130FBF779F82021095D74
:1050500000020843E1890391002939D0049A8A1893
:105060000899C90951180691884231D3401A394626
:10507000FBF73EF800282BD045490127884200D392
:1050800002274449884200D30327801C68610E90A0
:10509000EE6103983018286206997118A962032FEF
:1050A00018D00899002913D00499401868620E9806
:1050B000022F1ED04100401841080E98C007C00FB3
:1050C0000818334A0D9909328018000B814212D218
:1050D0000D2023E708980028FAD120462D30FBF751
:1050E0002EF82C21095D0002084368620E988000AA
:1050F000E7E74000E5E70020C0432861E860802042
:105100006871032F36D1208E012833D1711C2046BF
:1051100000F0B3FB00282DD16871FF20FF30005B49
:105120001D49884226D1601CFBF709F8217800024E
:1051300008431A4988421DD12046FF30E630FAF76D
:10514000FEFF2646FF36E136317900020843144956
:1051500088420FD130460930FAF7F1FF317A000268
:105160000843286130460D30FAF7E9FF317B000231
:105170000843E86005492F70091F0888401C088013
:10518000E8802046FFF7A8F8EBE60000AC0000201E
:10519000F60F0000F6FF000055AA000052526141D0
:1051A0007272416173B50446019801782F2901D0CC
:1051B0005C2901D1401C01900025A5600198007870
:1051C000202805D200212046FFF757FA65617CBDF3
:1051D00001A92046FFF7FAF80028F8D1002120465F
:1051E000FFF74BFA002822D12169206800F045FB27
:1051F00000281CD161690A78002A05D0CA7A1207F2
:105200000FD40A23A26903E0042010E05B1E06D33A
:105210000D781678491C521CAD1BF7D001E0002D0B
:1052200005D000212046FFF773F90028DCD0A169E2
:105230000028C97A05D00428C9D14907C7D4052058
:105240007CBD4907FCD46169C87AC006F7D52068DF
:1052500000F00EF9A060BBE710B500F083FC10BDB4
:1052600002480069C007C00F7047000000040048F2
:10527000F0B585B00C46074602290ED30120000385
:105280003E187069A04208D900253078ED43012806
:1052900007D002282ED003283CD00125284605B08F
:1052A000F0BD600800190090316A000B09183846FB
:1052B00000F0E3FA0028F1D100980005000D385CF9
:1052C00003900098401C0090316A000B0918384682
:1052D00000F0D3FA0028E1D1009803990005000DF1
:1052E000385C00020843E10701D00509D6E705054F
:1052F0002D0DD3E7306AE10A4118384600F0BDFAB7
:105300000028CBD16005000DC019417800780D024E
:105310000543C3E7306AA10A4118384600F0ADFAE8
:105320000028BBD1A005000DC419601CFAF707FFC7
:1053300021780002084305012D09AFE700207047DE
:1053400010B5044600202268C043002A13D011463D
:1053500000E0491C0B78212B0ED33A2BF9D113789E
:10536000521C303B0A2B06D28A4204D1002B02D1B8
:10537000491C1846216010BD002010BDF0B5034641
:10538000214A1C6800200C2545435659A64208D1E5
:10539000AD186E689F68BE4203D12D89DE88B54284
:1053A00002D0401C0228EED3022815D1002002E0D2
:1053B000401C022804D20C2545435559002DF7D135
:1053C000022811D00C2545435451AC189E686660E4
:1053D000DB88238100236381002907D00C2141430E
:1053E00089184989002907D00020F0BD0C214143CC
:1053F00089184989491C01E0FF2101310C234343ED
:105400009A185181401CF0BDE00A002008B51548EB
:10541000C269012189030A43C261C06907220840A9
:1054200000901248104901600821C16100214161CA
:105430000161816212028160C260FF220162053255
:10544000426001225202416382614162FCF78AF9A3
:10545000022211461A20FBF751F81A20FBF744F8F4
:1054600008BD000000100240003800407C0A002007
:105470000246C87E8B7E0002184301231B03D2180C
:105480001278032A05D14A7D0B7D110219430904C4
:105490000843704700280AD00A4901280ED0022884
:1054A00004D14869FF220132104348617047092046
:1054B000C006416980221143416170474869082252
:1054C000F2E700000004004800280AD00A49012839
:1054D0000ED0022804D14869FF220132904348616E
:1054E00070470920C006416980229143416170479D
:1054F00048690822F2E70000000400485E4B9D4422
:10550000FAF7AEFFFDF7F0FBFCF7B4FDFCF7F2FD98
:10551000FCF716FEFCF7A0FDFCF72EFE57A0FEF7E9
:105520000BFCFFF773FF6D46284600F0C1FA684692
:10553000417855A0FEF700FC284600F065FA57A018
:10554000FEF7FAFB0024295D57A0FEF7F5FB641C6B
:10555000102CF8DB56A0FEF7EFFB564801684022FE
:1055600091430160544C00226C44214640A8FFF74F
:10557000CBFB002801D051A007E0002211462046B5
:10558000FFF72EF900281ED050A0FEF7D5FB2846C5
:1055900000F08EFA684641783BA0FEF7CDFB5248FA
:1055A00006224EA16844FFF7DFFB0300FEF7D4FBA1
:1055B000130D0F16181A1C1E20222426282A2C36FA
:1055C0002E303234360049A0DFE74CA000E04DA079
:1055D000FEF7B2FB0026FF27013721E04DA0F7E7D9
:1055E00050A0F5E753A0F3E756A0F1E759A0EFE785
:1055F0005DA0EDE75FA0EBE761A0E9E765A0E7E765
:1056000066A0E5E76BA0E3E76FA0E1E773A0DFE743
:1056100076A0DDE778A0DBE77DA0D9E783A0D7E718
:1056200030022A46394600F015FA314682A0FEF7CC
:1056300083FB0024295D84A0FEF77EFB641CFF2C05
:10564000F8DD1BA0FEF778FB761C042EE8DB804C0F
:10565000002520780028FCD02078012806D00228D8
:1056600004D0032802D000BF2570F2E7FEF736FF12
:1056700078A0FEF761FBF7E7A0EEFFFF4469612029
:1056800064756974210A0000537461747573205243
:1056900065673A253032780A00000000494420202E
:1056A0002020202020203A00253032780000000001
:1056B0000A000000003800405C110000665F6D6F5A
:1056C000756E74206661696C65640A00665F6D6B57
:1056D0006673206661696C65640A000072656164C6
:1056E0006D652E7478740000301100006D6B667368
:1056F00020737563636573730A00000046525F4F41
:105700004B200A0046525F4449534B5F455252209A
:105710000A00000046525F494E545F455252200A2B
:105720000000000046525F4E4F545F5245414459BD
:10573000200A000046525F4E4F5F46494C45200A02
:105740000000000046525F4E4F5F50415448200A0F
:105750000000000046525F494E56414C49445F4E9E
:10576000414D45200A00000046525F44454E4945E0
:1057700044200A0046525F4558495354200A00000D
:1057800046525F494E56414C49445F4F424A454359
:1057900054200A00646464200A00000046525F57E7
:1057A000524954455F50524F544543544544200A92
:1057B0000000000046525F4E4F545F454E41424C40
:1057C0004544200A0000000046525F4E4F5F4649A4
:1057D0004C4553595354454D200A000046525F54DE
:1057E000494D454F5554200A0000000046525F4C79
:1057F0004F434B4544200A0046525F4E4F545F458D
:105800004E4F5547485F434F5245200A0000000065
:1058100046525F544F4F5F4D414E595F4F50454E7A
:105820005F46494C4553200A0000000064656661EC
:10583000756C74200A000000536563746F72202534
:1058400064203A0A00000000253032782000000071
:1058500000000020627574740A00000003E00B78F9
:105860000370401C491C521EF9D27047C9B201E0B6
:105870000170401C521EFBD27047F8B5074601204C
:1058800000033E18F06A0D460024A8420FD03846A7
:1058900000F07EF904000AD1707801232A463946C7
:1058A000FEF752FF002801D0651E0124F562204654
:1058B000F8BD0000F8B50D4610A109681646009124
:1058C000020C69464A70020A8A700D4CC870606901
:1058D00001273F03B84360610A2304220948FBF70C
:1058E000CBFF0A232A4631460648FBF7C5FF61690C
:1058F00039436161002800D00120F8BD020000009A
:10590000000400487C0A0020F7B582B017460C4618
:1059100002290DD301210298090346187069A0429B
:1059200006D93078012807D002283FD003284DD06F
:105930000225284605B0F0BD600800190090316AC4
:10594000000B09180298FFF798FF0500F1D10098A5
:1059500001050298090D09180098401C0090E00705
:1059600005D008780007000F3A01104300E03846E0
:105970000870012030710098316A000B09180298F4
:10598000FFF77BFF0500D4D1009801050298090DAF
:105990000818E10702D03905090E05E001783A053B
:1059A00009090901120F1143017029E0306AE10A67
:1059B00041180298FFF761FF0500BAD16005010D9B
:1059C000029808180770390A417019E0306AA10A74
:1059D00041180298FFF751FF0500AAD1A005010D5B
:1059E00002980C18601CFAF7AAFB0002000F0007CF
:1059F00038432070010A6170010CA170000EE07044
:105A00000120307195E700007CB505460EA00068C6
:105A10000E4C0190606901263603B04360610A2391
:105A2000012201A90A48FBF727FF0A202A46009015
:105A3000102311460648FBF7D7FF616931436161C6
:105A4000002800D001207CBD9E000000000400481A
:105A50007C0A0020FEB50E4612A109681546019188
:105A6000020C69464A71020A8A710F4CC87160695A
:105A700001273F03B84360610A23042201A90B48B0
:105A8000FBF7FAFE0A202A460090B3B211460748F7
:105A9000FBF7AAFF616939436161002800D001204A
:105AA000FEBD000003000000000400487C0A002046
:105AB0007CB505460EA000680E4C01906069012679
:105AC0003603B04360610A23012201A90A48FBF7AB
:105AD000D3FE0A202A460090012311460648FBF710
